{
  "_format": "hh-sol-artifact-1",
  "contractName": "SALT",
  "sourceName": "contracts/SALT.sol",
  "abi": [
    {
      "inputs": [],
      "stateMutability": "nonpayable",
      "type": "constructor"
    },
    {
      "inputs": [
        {
          "internalType": "address",
          "name": "spender",
          "type": "address"
        },
        {
          "internalType": "uint256",
          "name": "allowance",
          "type": "uint256"
        },
        {
          "internalType": "uint256",
          "name": "needed",
          "type": "uint256"
        }
      ],
      "name": "ERC20InsufficientAllowance",
      "type": "error"
    },
    {
      "inputs": [
        {
          "internalType": "address",
          "name": "sender",
          "type": "address"
        },
        {
          "internalType": "uint256",
          "name": "balance",
          "type": "uint256"
        },
        {
          "internalType": "uint256",
          "name": "needed",
          "type": "uint256"
        }
      ],
      "name": "ERC20InsufficientBalance",
      "type": "error"
    },
    {
      "inputs": [
        {
          "internalType": "address",
          "name": "approver",
          "type": "address"
        }
      ],
      "name": "ERC20InvalidApprover",
      "type": "error"
    },
    {
      "inputs": [
        {
          "internalType": "address",
          "name": "receiver",
          "type": "address"
        }
      ],
      "name": "ERC20InvalidReceiver",
      "type": "error"
    },
    {
      "inputs": [
        {
          "internalType": "address",
          "name": "sender",
          "type": "address"
        }
      ],
      "name": "ERC20InvalidSender",
      "type": "error"
    },
    {
      "inputs": [
        {
          "internalType": "address",
          "name": "spender",
          "type": "address"
        }
      ],
      "name": "ERC20InvalidSpender",
      "type": "error"
    },
    {
      "inputs": [
        {
          "internalType": "address",
          "name": "owner",
          "type": "address"
        }
      ],
      "name": "OwnableInvalidOwner",
      "type": "error"
    },
    {
      "inputs": [
        {
          "internalType": "address",
          "name": "account",
          "type": "address"
        }
      ],
      "name": "OwnableUnauthorizedAccount",
      "type": "error"
    },
    {
      "anonymous": false,
      "inputs": [
        {
          "indexed": true,
          "internalType": "address",
          "name": "addr",
          "type": "address"
        }
      ],
      "name": "AddressBlocked",
      "type": "event"
    },
    {
      "anonymous": false,
      "inputs": [
        {
          "indexed": true,
          "internalType": "address",
          "name": "addr",
          "type": "address"
        }
      ],
      "name": "AddressUnblocked",
      "type": "event"
    },
    {
      "anonymous": false,
      "inputs": [
        {
          "indexed": true,
          "internalType": "address",
          "name": "owner",
          "type": "address"
        },
        {
          "indexed": true,
          "internalType": "address",
          "name": "spender",
          "type": "address"
        },
        {
          "indexed": false,
          "internalType": "uint256",
          "name": "value",
          "type": "uint256"
        }
      ],
      "name": "Approval",
      "type": "event"
    },
    {
      "anonymous": false,
      "inputs": [
        {
          "indexed": true,
          "internalType": "address",
          "name": "operator",
          "type": "address"
        },
        {
          "indexed": true,
          "internalType": "address",
          "name": "tokenHolder",
          "type": "address"
        }
      ],
      "name": "AuthorizedOperator",
      "type": "event"
    },
    {
      "anonymous": false,
      "inputs": [],
      "name": "ControllabilityRevoked",
      "type": "event"
    },
    {
      "anonymous": false,
      "inputs": [
        {
          "indexed": true,
          "internalType": "address",
          "name": "controller",
          "type": "address"
        },
        {
          "indexed": true,
          "internalType": "address",
          "name": "from",
          "type": "address"
        },
        {
          "indexed": true,
          "internalType": "address",
          "name": "to",
          "type": "address"
        },
        {
          "indexed": false,
          "internalType": "uint256",
          "name": "value",
          "type": "uint256"
        }
      ],
      "name": "ControllerTransfer",
      "type": "event"
    },
    {
      "anonymous": false,
      "inputs": [
        {
          "indexed": true,
          "internalType": "bytes32",
          "name": "name",
          "type": "bytes32"
        },
        {
          "indexed": false,
          "internalType": "string",
          "name": "uri",
          "type": "string"
        },
        {
          "indexed": false,
          "internalType": "bytes32",
          "name": "documentHash",
          "type": "bytes32"
        }
      ],
      "name": "DocumentRemoved",
      "type": "event"
    },
    {
      "anonymous": false,
      "inputs": [
        {
          "indexed": true,
          "internalType": "bytes32",
          "name": "name",
          "type": "bytes32"
        },
        {
          "indexed": false,
          "internalType": "string",
          "name": "uri",
          "type": "string"
        },
        {
          "indexed": false,
          "internalType": "bytes32",
          "name": "documentHash",
          "type": "bytes32"
        }
      ],
      "name": "DocumentUpdated",
      "type": "event"
    },
    {
      "anonymous": false,
      "inputs": [],
      "name": "IssuanceLocked",
      "type": "event"
    },
    {
      "anonymous": false,
      "inputs": [
        {
          "indexed": true,
          "internalType": "address",
          "name": "operator",
          "type": "address"
        },
        {
          "indexed": true,
          "internalType": "address",
          "name": "to",
          "type": "address"
        },
        {
          "indexed": false,
          "internalType": "uint256",
          "name": "value",
          "type": "uint256"
        },
        {
          "indexed": false,
          "internalType": "bytes",
          "name": "data",
          "type": "bytes"
        }
      ],
      "name": "Issued",
      "type": "event"
    },
    {
      "anonymous": false,
      "inputs": [
        {
          "indexed": true,
          "internalType": "bytes32",
          "name": "partition",
          "type": "bytes32"
        },
        {
          "indexed": true,
          "internalType": "address",
          "name": "to",
          "type": "address"
        },
        {
          "indexed": false,
          "internalType": "uint256",
          "name": "value",
          "type": "uint256"
        },
        {
          "indexed": false,
          "internalType": "bytes",
          "name": "data",
          "type": "bytes"
        }
      ],
      "name": "IssuedByPartition",
      "type": "event"
    },
    {
      "anonymous": false,
      "inputs": [
        {
          "indexed": true,
          "internalType": "address",
          "name": "previousOwner",
          "type": "address"
        },
        {
          "indexed": true,
          "internalType": "address",
          "name": "newOwner",
          "type": "address"
        }
      ],
      "name": "OwnershipTransferred",
      "type": "event"
    },
    {
      "anonymous": false,
      "inputs": [
        {
          "indexed": true,
          "internalType": "bytes32",
          "name": "fromPartition",
          "type": "bytes32"
        },
        {
          "indexed": true,
          "internalType": "bytes32",
          "name": "toPartition",
          "type": "bytes32"
        },
        {
          "indexed": true,
          "internalType": "address",
          "name": "holder",
          "type": "address"
        },
        {
          "indexed": false,
          "internalType": "uint256",
          "name": "value",
          "type": "uint256"
        }
      ],
      "name": "PartitionMoved",
      "type": "event"
    },
    {
      "anonymous": false,
      "inputs": [
        {
          "indexed": true,
          "internalType": "address",
          "name": "operator",
          "type": "address"
        },
        {
          "indexed": true,
          "internalType": "address",
          "name": "from",
          "type": "address"
        },
        {
          "indexed": false,
          "internalType": "uint256",
          "name": "value",
          "type": "uint256"
        },
        {
          "indexed": false,
          "internalType": "bytes",
          "name": "data",
          "type": "bytes"
        }
      ],
      "name": "Redeemed",
      "type": "event"
    },
    {
      "anonymous": false,
      "inputs": [
        {
          "indexed": true,
          "internalType": "bytes32",
          "name": "partition",
          "type": "bytes32"
        },
        {
          "indexed": true,
          "internalType": "address",
          "name": "from",
          "type": "address"
        },
        {
          "indexed": false,
          "internalType": "uint256",
          "name": "value",
          "type": "uint256"
        },
        {
          "indexed": false,
          "internalType": "bytes",
          "name": "data",
          "type": "bytes"
        }
      ],
      "name": "RedeemedByPartition",
      "type": "event"
    },
    {
      "anonymous": false,
      "inputs": [
        {
          "indexed": true,
          "internalType": "address",
          "name": "operator",
          "type": "address"
        },
        {
          "indexed": true,
          "internalType": "address",
          "name": "tokenHolder",
          "type": "address"
        }
      ],
      "name": "RevokedOperator",
      "type": "event"
    },
    {
      "anonymous": false,
      "inputs": [
        {
          "indexed": true,
          "internalType": "address",
          "name": "from",
          "type": "address"
        },
        {
          "indexed": true,
          "internalType": "address",
          "name": "to",
          "type": "address"
        },
        {
          "indexed": false,
          "internalType": "uint256",
          "name": "value",
          "type": "uint256"
        }
      ],
      "name": "Transfer",
      "type": "event"
    },
    {
      "anonymous": false,
      "inputs": [
        {
          "indexed": true,
          "internalType": "bytes32",
          "name": "fromPartition",
          "type": "bytes32"
        },
        {
          "indexed": true,
          "internalType": "address",
          "name": "from",
          "type": "address"
        },
        {
          "indexed": true,
          "internalType": "address",
          "name": "to",
          "type": "address"
        },
        {
          "indexed": false,
          "internalType": "uint256",
          "name": "value",
          "type": "uint256"
        }
      ],
      "name": "TransferByPartition",
      "type": "event"
    },
    {
      "anonymous": false,
      "inputs": [
        {
          "indexed": true,
          "internalType": "address",
          "name": "addr",
          "type": "address"
        }
      ],
      "name": "ViewerAdded",
      "type": "event"
    },
    {
      "anonymous": false,
      "inputs": [
        {
          "indexed": true,
          "internalType": "address",
          "name": "addr",
          "type": "address"
        }
      ],
      "name": "ViewerRemoved",
      "type": "event"
    },
    {
      "inputs": [],
      "name": "PARTITION_LOCKED",
      "outputs": [
        {
          "internalType": "bytes32",
          "name": "",
          "type": "bytes32"
        }
      ],
      "stateMutability": "view",
      "type": "function"
    },
    {
      "inputs": [],
      "name": "PARTITION_UNLOCKED",
      "outputs": [
        {
          "internalType": "bytes32",
          "name": "",
          "type": "bytes32"
        }
      ],
      "stateMutability": "view",
      "type": "function"
    },
    {
      "inputs": [
        {
          "internalType": "address",
          "name": "controller",
          "type": "address"
        }
      ],
      "name": "addController",
      "outputs": [],
      "stateMutability": "nonpayable",
      "type": "function"
    },
    {
      "inputs": [
        {
          "internalType": "address",
          "name": "addr",
          "type": "address"
        }
      ],
      "name": "addViewer",
      "outputs": [],
      "stateMutability": "nonpayable",
      "type": "function"
    },
    {
      "inputs": [
        {
          "internalType": "address",
          "name": "owner",
          "type": "address"
        },
        {
          "internalType": "address",
          "name": "spender",
          "type": "address"
        }
      ],
      "name": "allowance",
      "outputs": [
        {
          "internalType": "uint256",
          "name": "",
          "type": "uint256"
        }
      ],
      "stateMutability": "view",
      "type": "function"
    },
    {
      "inputs": [
        {
          "internalType": "address",
          "name": "spender",
          "type": "address"
        },
        {
          "internalType": "uint256",
          "name": "value",
          "type": "uint256"
        }
      ],
      "name": "approve",
      "outputs": [
        {
          "internalType": "bool",
          "name": "",
          "type": "bool"
        }
      ],
      "stateMutability": "nonpayable",
      "type": "function"
    },
    {
      "inputs": [
        {
          "internalType": "address",
          "name": "account",
          "type": "address"
        }
      ],
      "name": "balanceOf",
      "outputs": [
        {
          "internalType": "uint256",
          "name": "",
          "type": "uint256"
        }
      ],
      "stateMutability": "view",
      "type": "function"
    },
    {
      "inputs": [
        {
          "internalType": "bytes32",
          "name": "partition",
          "type": "bytes32"
        },
        {
          "internalType": "address",
          "name": "tokenHolder",
          "type": "address"
        }
      ],
      "name": "balanceOfByPartition",
      "outputs": [
        {
          "internalType": "uint256",
          "name": "",
          "type": "uint256"
        }
      ],
      "stateMutability": "view",
      "type": "function"
    },
    {
      "inputs": [
        {
          "internalType": "address",
          "name": "addr",
          "type": "address"
        }
      ],
      "name": "blockAddress",
      "outputs": [],
      "stateMutability": "nonpayable",
      "type": "function"
    },
    {
      "inputs": [
        {
          "internalType": "address",
          "name": "",
          "type": "address"
        }
      ],
      "name": "blocked",
      "outputs": [
        {
          "internalType": "bool",
          "name": "",
          "type": "bool"
        }
      ],
      "stateMutability": "view",
      "type": "function"
    },
    {
      "inputs": [
        {
          "internalType": "uint256",
          "name": "value",
          "type": "uint256"
        }
      ],
      "name": "burn",
      "outputs": [],
      "stateMutability": "nonpayable",
      "type": "function"
    },
    {
      "inputs": [
        {
          "internalType": "address",
          "name": "account",
          "type": "address"
        },
        {
          "internalType": "uint256",
          "name": "value",
          "type": "uint256"
        }
      ],
      "name": "burnFrom",
      "outputs": [],
      "stateMutability": "nonpayable",
      "type": "function"
    },
    {
      "inputs": [
        {
          "internalType": "address",
          "name": "to",
          "type": "address"
        },
        {
          "internalType": "uint256",
          "name": "value",
          "type": "uint256"
        },
        {
          "internalType": "bytes",
          "name": "",
          "type": "bytes"
        }
      ],
      "name": "canTransfer",
      "outputs": [
        {
          "internalType": "bytes1",
          "name": "",
          "type": "bytes1"
        },
        {
          "internalType": "bytes32",
          "name": "",
          "type": "bytes32"
        },
        {
          "internalType": "bytes32",
          "name": "",
          "type": "bytes32"
        }
      ],
      "stateMutability": "view",
      "type": "function"
    },
    {
      "inputs": [
        {
          "internalType": "address",
          "name": "from",
          "type": "address"
        },
        {
          "internalType": "address",
          "name": "to",
          "type": "address"
        },
        {
          "internalType": "uint256",
          "name": "value",
          "type": "uint256"
        },
        {
          "internalType": "bytes",
          "name": "",
          "type": "bytes"
        },
        {
          "internalType": "bytes",
          "name": "",
          "type": "bytes"
        }
      ],
      "name": "controllerTransfer",
      "outputs": [],
      "stateMutability": "nonpayable",
      "type": "function"
    },
    {
      "inputs": [
        {
          "internalType": "address",
          "name": "",
          "type": "address"
        }
      ],
      "name": "controllers",
      "outputs": [
        {
          "internalType": "bool",
          "name": "",
          "type": "bool"
        }
      ],
      "stateMutability": "view",
      "type": "function"
    },
    {
      "inputs": [],
      "name": "decimals",
      "outputs": [
        {
          "internalType": "uint8",
          "name": "",
          "type": "uint8"
        }
      ],
      "stateMutability": "view",
      "type": "function"
    },
    {
      "inputs": [],
      "name": "getAllDocuments",
      "outputs": [
        {
          "internalType": "bytes32[]",
          "name": "",
          "type": "bytes32[]"
        }
      ],
      "stateMutability": "view",
      "type": "function"
    },
    {
      "inputs": [
        {
          "internalType": "bytes32",
          "name": "name",
          "type": "bytes32"
        }
      ],
      "name": "getDocument",
      "outputs": [
        {
          "internalType": "string",
          "name": "",
          "type": "string"
        },
        {
          "internalType": "bytes32",
          "name": "",
          "type": "bytes32"
        },
        {
          "internalType": "uint256",
          "name": "",
          "type": "uint256"
        }
      ],
      "stateMutability": "view",
      "type": "function"
    },
    {
      "inputs": [],
      "name": "isControllable",
      "outputs": [
        {
          "internalType": "bool",
          "name": "",
          "type": "bool"
        }
      ],
      "stateMutability": "view",
      "type": "function"
    },
    {
      "inputs": [],
      "name": "isIssuable",
      "outputs": [
        {
          "internalType": "bool",
          "name": "",
          "type": "bool"
        }
      ],
      "stateMutability": "view",
      "type": "function"
    },
    {
      "inputs": [
        {
          "internalType": "address",
          "name": "tokenHolder",
          "type": "address"
        },
        {
          "internalType": "uint256",
          "name": "value",
          "type": "uint256"
        },
        {
          "internalType": "bytes",
          "name": "data",
          "type": "bytes"
        }
      ],
      "name": "issue",
      "outputs": [],
      "stateMutability": "nonpayable",
      "type": "function"
    },
    {
      "inputs": [],
      "name": "lockIssuance",
      "outputs": [],
      "stateMutability": "nonpayable",
      "type": "function"
    },
    {
      "inputs": [
        {
          "internalType": "bytes32",
          "name": "fromPartition",
          "type": "bytes32"
        },
        {
          "internalType": "bytes32",
          "name": "toPartition",
          "type": "bytes32"
        },
        {
          "internalType": "uint256",
          "name": "value",
          "type": "uint256"
        }
      ],
      "name": "movePartition",
      "outputs": [],
      "stateMutability": "nonpayable",
      "type": "function"
    },
    {
      "inputs": [],
      "name": "name",
      "outputs": [
        {
          "internalType": "string",
          "name": "",
          "type": "string"
        }
      ],
      "stateMutability": "view",
      "type": "function"
    },
    {
      "inputs": [],
      "name": "owner",
      "outputs": [
        {
          "internalType": "address",
          "name": "",
          "type": "address"
        }
      ],
      "stateMutability": "view",
      "type": "function"
    },
    {
      "inputs": [
        {
          "internalType": "uint256",
          "name": "value",
          "type": "uint256"
        },
        {
          "internalType": "bytes",
          "name": "data",
          "type": "bytes"
        }
      ],
      "name": "redeem",
      "outputs": [],
      "stateMutability": "nonpayable",
      "type": "function"
    },
    {
      "inputs": [
        {
          "internalType": "bytes32",
          "name": "partition",
          "type": "bytes32"
        },
        {
          "internalType": "uint256",
          "name": "value",
          "type": "uint256"
        },
        {
          "internalType": "bytes",
          "name": "data",
          "type": "bytes"
        }
      ],
      "name": "redeemByPartition",
      "outputs": [],
      "stateMutability": "nonpayable",
      "type": "function"
    },
    {
      "inputs": [
        {
          "internalType": "address",
          "name": "controller",
          "type": "address"
        }
      ],
      "name": "removeController",
      "outputs": [],
      "stateMutability": "nonpayable",
      "type": "function"
    },
    {
      "inputs": [
        {
          "internalType": "bytes32",
          "name": "name",
          "type": "bytes32"
        }
      ],
      "name": "removeDocument",
      "outputs": [],
      "stateMutability": "nonpayable",
      "type": "function"
    },
    {
      "inputs": [
        {
          "internalType": "address",
          "name": "addr",
          "type": "address"
        }
      ],
      "name": "removeViewer",
      "outputs": [],
      "stateMutability": "nonpayable",
      "type": "function"
    },
    {
      "inputs": [],
      "name": "renounceOwnership",
      "outputs": [],
      "stateMutability": "nonpayable",
      "type": "function"
    },
    {
      "inputs": [],
      "name": "revokeControllability",
      "outputs": [],
      "stateMutability": "nonpayable",
      "type": "function"
    },
    {
      "inputs": [
        {
          "internalType": "bytes32",
          "name": "name",
          "type": "bytes32"
        },
        {
          "internalType": "string",
          "name": "uri",
          "type": "string"
        },
        {
          "internalType": "bytes32",
          "name": "documentHash",
          "type": "bytes32"
        }
      ],
      "name": "setDocument",
      "outputs": [],
      "stateMutability": "nonpayable",
      "type": "function"
    },
    {
      "inputs": [],
      "name": "symbol",
      "outputs": [
        {
          "internalType": "string",
          "name": "",
          "type": "string"
        }
      ],
      "stateMutability": "view",
      "type": "function"
    },
    {
      "inputs": [],
      "name": "totalSupply",
      "outputs": [
        {
          "internalType": "uint256",
          "name": "",
          "type": "uint256"
        }
      ],
      "stateMutability": "view",
      "type": "function"
    },
    {
      "inputs": [
        {
          "internalType": "address",
          "name": "to",
          "type": "address"
        },
        {
          "internalType": "uint256",
          "name": "amount",
          "type": "uint256"
        }
      ],
      "name": "transfer",
      "outputs": [
        {
          "internalType": "bool",
          "name": "",
          "type": "bool"
        }
      ],
      "stateMutability": "nonpayable",
      "type": "function"
    },
    {
      "inputs": [
        {
          "internalType": "bytes32",
          "name": "fromPartition",
          "type": "bytes32"
        },
        {
          "internalType": "address",
          "name": "to",
          "type": "address"
        },
        {
          "internalType": "uint256",
          "name": "value",
          "type": "uint256"
        },
        {
          "internalType": "bytes",
          "name": "data",
          "type": "bytes"
        }
      ],
      "name": "transferByPartition",
      "outputs": [
        {
          "internalType": "bytes32",
          "name": "",
          "type": "bytes32"
        }
      ],
      "stateMutability": "nonpayable",
      "type": "function"
    },
    {
      "inputs": [
        {
          "internalType": "address",
          "name": "from",
          "type": "address"
        },
        {
          "internalType": "address",
          "name": "to",
          "type": "address"
        },
        {
          "internalType": "uint256",
          "name": "amount",
          "type": "uint256"
        }
      ],
      "name": "transferFrom",
      "outputs": [
        {
          "internalType": "bool",
          "name": "",
          "type": "bool"
        }
      ],
      "stateMutability": "nonpayable",
      "type": "function"
    },
    {
      "inputs": [
        {
          "internalType": "address",
          "name": "newOwner",
          "type": "address"
        }
      ],
      "name": "transferOwnership",
      "outputs": [],
      "stateMutability": "nonpayable",
      "type": "function"
    },
    {
      "inputs": [
        {
          "internalType": "address",
          "name": "to",
          "type": "address"
        },
        {
          "internalType": "uint256",
          "name": "value",
          "type": "uint256"
        },
        {
          "internalType": "bytes",
          "name": "",
          "type": "bytes"
        }
      ],
      "name": "transferWithData",
      "outputs": [],
      "stateMutability": "nonpayable",
      "type": "function"
    },
    {
      "inputs": [
        {
          "internalType": "address",
          "name": "addr",
          "type": "address"
        }
      ],
      "name": "unblockAddress",
      "outputs": [],
      "stateMutability": "nonpayable",
      "type": "function"
    },
    {
      "inputs": [
        {
          "internalType": "address",
          "name": "",
          "type": "address"
        }
      ],
      "name": "viewers",
      "outputs": [
        {
          "internalType": "bool",
          "name": "",
          "type": "bool"
        }
      ],
      "stateMutability": "view",
      "type": "function"
    }
  ],
  "bytecode": "0x60806040526001600560146101000a81548160ff0219169083151502179055506001600560156101000a81548160ff02191690831515021790555034801561004657600080fd5b50336040518060400160405280600881526020017f3530332d53414c540000000000000000000000000000000000000000000000008152506040518060400160405280600481526020017f53414c540000000000000000000000000000000000000000000000000000000081525081600390816100c39190610ac6565b5080600490816100d39190610ac6565b505050600073ffffffffffffffffffffffffffffffffffffffff168173ffffffffffffffffffffffffffffffffffffffff16036101485760006040517f1e4fbdf700000000000000000000000000000000000000000000000000000000815260040161013f9190610bd9565b60405180910390fd5b610157816101a960201b60201c565b50600064019572191090506101a37f314f33d36812fa77f857277e466e3b8ef8b3d560f8c84129b04c3be6509fd24e33836040518060200160405280600081525061026f60201b60201c565b50610e4f565b6000600560009054906101000a900473ffffffffffffffffffffffffffffffffffffffff16905081600560006101000a81548173ffffffffffffffffffffffffffffffffffffffff021916908373ffffffffffffffffffffffffffffffffffffffff1602179055508173ffffffffffffffffffffffffffffffffffffffff168173ffffffffffffffffffffffffffffffffffffffff167f8be0079c531659141344cd1fd0a4f28419497f9722a3daafe3b4186f6b6457e060405160405180910390a35050565b6001600a60006101000a81548160ff02191690831515021790555061029a838361037360201b60201c565b6000600a60006101000a81548160ff02191690831515021790555081600960008573ffffffffffffffffffffffffffffffffffffffff1673ffffffffffffffffffffffffffffffffffffffff168152602001908152602001600020600086815260200190815260200160002060008282546103159190610c23565b925050819055508273ffffffffffffffffffffffffffffffffffffffff16847f6032e2468b0f94dfa63c61d6c8a84842a99c049263eae408a52b945020b6578d8484604051610365929190610cf6565b60405180910390a350505050565b600073ffffffffffffffffffffffffffffffffffffffff168273ffffffffffffffffffffffffffffffffffffffff16036103e55760006040517fec442f050000000000000000000000000000000000000000000000000000000081526004016103dc9190610bd9565b60405180910390fd5b6103f7600083836103fb60201b60201c565b5050565b600a60009054906101000a900460ff1661063b57600073ffffffffffffffffffffffffffffffffffffffff168373ffffffffffffffffffffffffffffffffffffffff161461057e5780600960008573ffffffffffffffffffffffffffffffffffffffff1673ffffffffffffffffffffffffffffffffffffffff16815260200190815260200160002060007f314f33d36812fa77f857277e466e3b8ef8b3d560f8c84129b04c3be6509fd24e81526020019081526020016000205410156104f6576040517f08c379a00000000000000000000000000000000000000000000000000000000081526004016104ed90610da9565b60405180910390fd5b80600960008573ffffffffffffffffffffffffffffffffffffffff1673ffffffffffffffffffffffffffffffffffffffff16815260200190815260200160002060007f314f33d36812fa77f857277e466e3b8ef8b3d560f8c84129b04c3be6509fd24e815260200190815260200160002060008282546105769190610dc9565b925050819055505b600073ffffffffffffffffffffffffffffffffffffffff168273ffffffffffffffffffffffffffffffffffffffff161461063a5780600960008473ffffffffffffffffffffffffffffffffffffffff1673ffffffffffffffffffffffffffffffffffffffff16815260200190815260200160002060007f314f33d36812fa77f857277e466e3b8ef8b3d560f8c84129b04c3be6509fd24e815260200190815260200160002060008282546106329190610c23565b925050819055505b5b61064c83838361065160201b60201c565b505050565b600073ffffffffffffffffffffffffffffffffffffffff168373ffffffffffffffffffffffffffffffffffffffff16036106a35780600260008282546106979190610c23565b92505081905550610776565b60008060008573ffffffffffffffffffffffffffffffffffffffff1673ffffffffffffffffffffffffffffffffffffffff1681526020019081526020016000205490508181101561072f578381836040517fe450d38c00000000000000000000000000000000000000000000000000000000815260040161072693929190610dfd565b60405180910390fd5b8181036000808673ffffffffffffffffffffffffffffffffffffffff1673ffffffffffffffffffffffffffffffffffffffff16815260200190815260200160002081905550505b600073ffffffffffffffffffffffffffffffffffffffff168273ffffffffffffffffffffffffffffffffffffffff16036107bf578060026000828254039250508190555061080c565b806000808473ffffffffffffffffffffffffffffffffffffffff1673ffffffffffffffffffffffffffffffffffffffff168152602001908152602001600020600082825401925050819055505b8173ffffffffffffffffffffffffffffffffffffffff168373ffffffffffffffffffffffffffffffffffffffff167fddf252ad1be2c89b69c2b068fc378daa952ba7f163c4a11628f55a4df523b3ef836040516108699190610e34565b60405180910390a3505050565b600081519050919050565b7f4e487b7100000000000000000000000000000000000000000000000000000000600052604160045260246000fd5b7f4e487b7100000000000000000000000000000000000000000000000000000000600052602260045260246000fd5b600060028204905060018216806108f757607f821691505b60208210810361090a576109096108b0565b5b50919050565b60008190508160005260206000209050919050565b60006020601f8301049050919050565b600082821b905092915050565b6000600883026109727fffffffffffffffffffffffffffffffffffffffffffffffffffffffffffffffff82610935565b61097c8683610935565b95508019841693508086168417925050509392505050565b6000819050919050565b6000819050919050565b60006109c36109be6109b984610994565b61099e565b610994565b9050919050565b6000819050919050565b6109dd836109a8565b6109f16109e9826109ca565b848454610942565b825550505050565b600090565b610a066109f9565b610a118184846109d4565b505050565b5b81811015610a3557610a2a6000826109fe565b600181019050610a17565b5050565b601f821115610a7a57610a4b81610910565b610a5484610925565b81016020851015610a63578190505b610a77610a6f85610925565b830182610a16565b50505b505050565b600082821c905092915050565b6000610a9d60001984600802610a7f565b1980831691505092915050565b6000610ab68383610a8c565b9150826002028217905092915050565b610acf82610876565b67ffffffffffffffff811115610ae857610ae7610881565b5b610af282546108df565b610afd828285610a39565b600060209050601f831160018114610b305760008415610b1e578287015190505b610b288582610aaa565b865550610b90565b601f198416610b3e86610910565b60005b82811015610b6657848901518255600182019150602085019450602081019050610b41565b86831015610b835784890151610b7f601f891682610a8c565b8355505b6001600288020188555050505b505050505050565b600073ffffffffffffffffffffffffffffffffffffffff82169050919050565b6000610bc382610b98565b9050919050565b610bd381610bb8565b82525050565b6000602082019050610bee6000830184610bca565b92915050565b7f4e487b7100000000000000000000000000000000000000000000000000000000600052601160045260246000fd5b6000610c2e82610994565b9150610c3983610994565b9250828201905080821115610c5157610c50610bf4565b5b92915050565b610c6081610994565b82525050565b600081519050919050565b600082825260208201905092915050565b60005b83811015610ca0578082015181840152602081019050610c85565b60008484015250505050565b6000601f19601f8301169050919050565b6000610cc882610c66565b610cd28185610c71565b9350610ce2818560208601610c82565b610ceb81610cac565b840191505092915050565b6000604082019050610d0b6000830185610c57565b8181036020830152610d1d8184610cbd565b90509392505050565b600082825260208201905092915050565b7f53414c543a20696e73756666696369656e7420756e6c6f636b65642062616c6160008201527f6e63650000000000000000000000000000000000000000000000000000000000602082015250565b6000610d93602383610d26565b9150610d9e82610d37565b604082019050919050565b60006020820190508181036000830152610dc281610d86565b9050919050565b6000610dd482610994565b9150610ddf83610994565b9250828203905081811115610df757610df6610bf4565b5b92915050565b6000606082019050610e126000830186610bca565b610e1f6020830185610c57565b610e2c6040830184610c57565b949350505050565b6000602082019050610e496000830184610c57565b92915050565b61463c80610e5e6000396000f3fe608060405234801561001057600080fd5b506004361061025e5760003560e01c80638da5cb5b11610146578063bb3acde9116100c3578063e596219511610087578063e5962195146106fd578063e77c646d1461072d578063f282527a14610749578063f2fde38b14610765578063f3d490db14610781578063f6a74ed7146107b15761025e565b8063bb3acde914610649578063c350184814610665578063d1d9891414610681578063da8c229e1461069d578063dd62ed3e146106cd5761025e565b8063a69439aa1161010a578063a69439aa1461057f578063a7fc7a07146105af578063a9059cbb146105cb578063ad2bb1b3146105fb578063b10d6b41146106175761025e565b80638da5cb5b146104e957806395b657f51461050757806395d89b41146105255780639fa5f50b14610543578063a2ccd608146105615761025e565b806330e82803116101df578063601f8cf5116101a3578063601f8cf51461045157806362eb00681461046d57806369716be71461048957806370a0823114610493578063715018a6146104c357806379cc6790146104cd5761025e565b806330e82803146103ad578063313ce567146103dd57806342966c68146103fb5780634c783bf51461041757806350042d3a146104355761025e565b80631badb25c116102265780631badb25c14610307578063234b8d0e1461033957806323b872dd146103435780632535f762146103735780632f1cae851461038f5761025e565b8063010648ca1461026357806306fdde031461027f578063095ea7b31461029d57806318160ddd146102cd578063186d9d88146102eb575b600080fd5b61027d6004803603810190610278919061339b565b6107cd565b005b6102876108fe565b604051610294919061349f565b60405180910390f35b6102b760048036038101906102b29190613555565b610990565b6040516102c491906135b0565b60405180910390f35b6102d56109b3565b6040516102e291906135da565b60405180910390f35b610305600480360381019061030091906135f5565b6109bd565b005b610321600480360381019061031c9190613678565b610b24565b60405161033093929190613736565b60405180910390f35b610341610d48565b005b61035d6004803603810190610358919061376d565b610d99565b60405161036a91906135b0565b60405180910390f35b61038d60048036038101906103889190613678565b610ecd565b005b610397610ffc565b6040516103a491906135b0565b60405180910390f35b6103c760048036038101906103c291906137c0565b61100f565b6040516103d491906135da565b60405180910390f35b6103e561106a565b6040516103f2919061381c565b60405180910390f35b61041560048036038101906104109190613837565b61106f565b005b61041f611083565b60405161042c91906135b0565b60405180910390f35b61044f600480360381019061044a9190613864565b611096565b005b61046b600480360381019061046691906135f5565b61124c565b005b610487600480360381019061048291906138b7565b6112f2565b005b6104916114ee565b005b6104ad60048036038101906104a891906135f5565b61153f565b6040516104ba91906135da565b60405180910390f35b6104cb611587565b005b6104e760048036038101906104e29190613555565b61159b565b005b6104f16115bb565b6040516104fe919061393a565b60405180910390f35b61050f6115e5565b60405161051c9190613955565b60405180910390f35b61052d611609565b60405161053a919061349f565b60405180910390f35b61054b61169b565b6040516105589190613a2e565b60405180910390f35b6105696116f3565b6040516105769190613955565b60405180910390f35b610599600480360381019061059491906135f5565b611717565b6040516105a691906135b0565b60405180910390f35b6105c960048036038101906105c491906135f5565b611737565b005b6105e560048036038101906105e09190613555565b6117f5565b6040516105f291906135b0565b60405180910390f35b610615600480360381019061061091906135f5565b611927565b005b610631600480360381019061062c9190613a50565b611a8e565b60405161064093929190613a7d565b60405180910390f35b610663600480360381019061065e9190613678565b611b78565b005b61067f600480360381019061067a9190613a50565b611cae565b005b61069b600480360381019061069691906135f5565b611f04565b005b6106b760048036038101906106b291906135f5565b611faa565b6040516106c491906135b0565b60405180910390f35b6106e760048036038101906106e29190613abb565b611fca565b6040516106f491906135da565b60405180910390f35b610717600480360381019061071291906135f5565b612051565b60405161072491906135b0565b60405180910390f35b61074760048036038101906107429190613afb565b612071565b005b610763600480360381019061075e9190613b5b565b6120e9565b005b61077f600480360381019061077a91906135f5565b612291565b005b61079b60048036038101906107969190613c17565b612317565b6040516107a89190613955565b60405180910390f35b6107cb60048036038101906107c691906135f5565b61264b565b005b6107d5612709565b6000600b6000868152602001908152602001600020600201540361081d57600c8490806001815401808255809150506001900390600052602060002001600090919091909150555b604051806060016040528084848080601f016020809104026020016040519081016040528093929190818152602001838380828437600081840152601f19601f82011690508083019250505050505050815260200182815260200142815250600b600086815260200190815260200160002060008201518160000190816108a49190613eda565b506020820151816001015560408201518160020155905050837fb4c22d60cd550a815744f04e3ff5278bf19684565ee00e2b084041b6024bd6f68484846040516108f093929190613fe8565b60405180910390a250505050565b60606003805461090d90613cfd565b80601f016020809104026020016040519081016040528092919081815260200182805461093990613cfd565b80156109865780601f1061095b57610100808354040283529160200191610986565b820191906000526020600020905b81548152906001019060200180831161096957829003601f168201915b5050505050905090565b60008061099b612790565b90506109a8818585612798565b600191505092915050565b6000600254905090565b600660003373ffffffffffffffffffffffffffffffffffffffff1673ffffffffffffffffffffffffffffffffffffffff16815260200190815260200160002060009054906101000a900460ff1680610a475750610a186115bb565b73ffffffffffffffffffffffffffffffffffffffff163373ffffffffffffffffffffffffffffffffffffffff16145b610a86576040517f08c379a0000000000000000000000000000000000000000000000000000000008152600401610a7d90614066565b60405180910390fd5b6000600760008373ffffffffffffffffffffffffffffffffffffffff1673ffffffffffffffffffffffffffffffffffffffff16815260200190815260200160002060006101000a81548160ff0219169083151502179055508073ffffffffffffffffffffffffffffffffffffffff167f385b21b54e2348e690dec29e9741026142b02eaabfcc2fcb676cebcb7cd1653460405160405180910390a250565b6000806000600760003373ffffffffffffffffffffffffffffffffffffffff1673ffffffffffffffffffffffffffffffffffffffff16815260200190815260200160002060009054906101000a900460ff1615610bb35760507f53656e64657220626c6f636b65640000000000000000000000000000000000006000801b8260f81b9250925092509250610d3e565b600760008873ffffffffffffffffffffffffffffffffffffffff1673ffffffffffffffffffffffffffffffffffffffff16815260200190815260200160002060009054906101000a900460ff1615610c3d5760507f526563697069656e7420626c6f636b65640000000000000000000000000000006000801b8260f81b9250925092509250610d3e565b85600960003373ffffffffffffffffffffffffffffffffffffffff1673ffffffffffffffffffffffffffffffffffffffff16815260200190815260200160002060007f314f33d36812fa77f857277e466e3b8ef8b3d560f8c84129b04c3be6509fd24e8152602001908152602001600020541015610ced5760507f496e73756666696369656e7420756e6c6f636b65642062616c616e63650000006000801b8260f81b9250925092509250610d3e565b60517f5472616e73666572204f4b0000000000000000000000000000000000000000007f314f33d36812fa77f857277e466e3b8ef8b3d560f8c84129b04c3be6509fd24e8260f81b92509250925092505b9450945094915050565b610d50612709565b6000600560146101000a81548160ff0219169083151502179055507f824810ec283a151ecc57e0d98e78df4d6c3cd868b46b27ee0b5cb37c4d92017360405160405180910390a1565b60008383600760008373ffffffffffffffffffffffffffffffffffffffff1673ffffffffffffffffffffffffffffffffffffffff16815260200190815260200160002060009054906101000a900460ff1615610e2a576040517f08c379a0000000000000000000000000000000000000000000000000000000008152600401610e21906140d2565b60405180910390fd5b600760008273ffffffffffffffffffffffffffffffffffffffff1673ffffffffffffffffffffffffffffffffffffffff16815260200190815260200160002060009054906101000a900460ff1615610eb7576040517f08c379a0000000000000000000000000000000000000000000000000000000008152600401610eae9061413e565b60405180910390fd5b610ec28686866127aa565b925050509392505050565b3384600760008373ffffffffffffffffffffffffffffffffffffffff1673ffffffffffffffffffffffffffffffffffffffff16815260200190815260200160002060009054906101000a900460ff1615610f5c576040517f08c379a0000000000000000000000000000000000000000000000000000000008152600401610f53906140d2565b60405180910390fd5b600760008273ffffffffffffffffffffffffffffffffffffffff1673ffffffffffffffffffffffffffffffffffffffff16815260200190815260200160002060009054906101000a900460ff1615610fe9576040517f08c379a0000000000000000000000000000000000000000000000000000000008152600401610fe09061413e565b60405180910390fd5b610ff43387876127d9565b505050505050565b600560149054906101000a900460ff1681565b6000600960008373ffffffffffffffffffffffffffffffffffffffff1673ffffffffffffffffffffffffffffffffffffffff168152602001908152602001600020600084815260200190815260200160002054905092915050565b600090565b61108061107a612790565b826128cd565b50565b600560159054906101000a900460ff1681565b80600960003373ffffffffffffffffffffffffffffffffffffffff1673ffffffffffffffffffffffffffffffffffffffff1681526020019081526020016000206000858152602001908152602001600020541015611129576040517f08c379a0000000000000000000000000000000000000000000000000000000008152600401611120906141d0565b60405180910390fd5b80600960003373ffffffffffffffffffffffffffffffffffffffff1673ffffffffffffffffffffffffffffffffffffffff16815260200190815260200160002060008581526020019081526020016000206000828254611189919061421f565b9250508190555080600960003373ffffffffffffffffffffffffffffffffffffffff1673ffffffffffffffffffffffffffffffffffffffff168152602001908152602001600020600084815260200190815260200160002060008282546111f09190614253565b925050819055503373ffffffffffffffffffffffffffffffffffffffff1682847f7f8e9db200d501992d4633298365ca9596d31ae7f5aa3bb4c8908e3dde444f878460405161123f91906135da565b60405180910390a4505050565b611254612709565b6001600860008373ffffffffffffffffffffffffffffffffffffffff1673ffffffffffffffffffffffffffffffffffffffff16815260200190815260200160002060006101000a81548160ff0219169083151502179055508073ffffffffffffffffffffffffffffffffffffffff167f8f3cdfcd0f6c43806bbb60258ecb84e7687ad429438a38d75a1dbee3c9e31f5060405160405180910390a250565b82600960003373ffffffffffffffffffffffffffffffffffffffff1673ffffffffffffffffffffffffffffffffffffffff1681526020019081526020016000206000868152602001908152602001600020541015611385576040517f08c379a000000000000000000000000000000000000000000000000000000000815260040161137c906141d0565b60405180910390fd5b6001600a60006101000a81548160ff0219169083151502179055506113aa33846128cd565b6000600a60006101000a81548160ff02191690831515021790555082600960003373ffffffffffffffffffffffffffffffffffffffff1673ffffffffffffffffffffffffffffffffffffffff16815260200190815260200160002060008681526020019081526020016000206000828254611425919061421f565b925050819055503373ffffffffffffffffffffffffffffffffffffffff16847fc736c60bc8a4ad875a1bbafefffc9506b6075aa93a08cc74bf4bea84daca371a858585604051611477939291906142c5565b60405180910390a33373ffffffffffffffffffffffffffffffffffffffff163373ffffffffffffffffffffffffffffffffffffffff167fb7d0d6b60740753e9f16692a2f479472a1385aec2420fa43225b02f2ffa1afe78585856040516114e0939291906142c5565b60405180910390a350505050565b6114f6612709565b6000600560156101000a81548160ff0219169083151502179055507f564f87f7c0005218d52e0d155c104ed00e64a725ae9396663f87336e6232938860405160405180910390a1565b60008060008373ffffffffffffffffffffffffffffffffffffffff1673ffffffffffffffffffffffffffffffffffffffff168152602001908152602001600020549050919050565b61158f612709565b611599600061294f565b565b6115ad826115a7612790565b83612a15565b6115b782826128cd565b5050565b6000600560009054906101000a900473ffffffffffffffffffffffffffffffffffffffff16905090565b7f314f33d36812fa77f857277e466e3b8ef8b3d560f8c84129b04c3be6509fd24e81565b60606004805461161890613cfd565b80601f016020809104026020016040519081016040528092919081815260200182805461164490613cfd565b80156116915780601f1061166657610100808354040283529160200191611691565b820191906000526020600020905b81548152906001019060200180831161167457829003601f168201915b5050505050905090565b6060600c8054806020026020016040519081016040528092919081815260200182805480156116e957602002820191906000526020600020905b8154815260200190600101908083116116d5575b5050505050905090565b7feb4a01a12a4bbfa1bc780c16c5b2b6720cdf4f3c29cabd8c0f76fec3a575096b81565b60086020528060005260406000206000915054906101000a900460ff1681565b61173f612709565b6001600660008373ffffffffffffffffffffffffffffffffffffffff1673ffffffffffffffffffffffffffffffffffffffff16815260200190815260200160002060006101000a81548160ff021916908315150217905550600073ffffffffffffffffffffffffffffffffffffffff168173ffffffffffffffffffffffffffffffffffffffff167ff4caeb2d6ca8932a215a353d0703c326ec2d81fc68170f320eb2ab49e9df61f960405160405180910390a350565b60003383600760008373ffffffffffffffffffffffffffffffffffffffff1673ffffffffffffffffffffffffffffffffffffffff16815260200190815260200160002060009054906101000a900460ff1615611886576040517f08c379a000000000000000000000000000000000000000000000000000000000815260040161187d906140d2565b60405180910390fd5b600760008273ffffffffffffffffffffffffffffffffffffffff1673ffffffffffffffffffffffffffffffffffffffff16815260200190815260200160002060009054906101000a900460ff1615611913576040517f08c379a000000000000000000000000000000000000000000000000000000000815260040161190a9061413e565b60405180910390fd5b61191d8585612aaa565b9250505092915050565b600660003373ffffffffffffffffffffffffffffffffffffffff1673ffffffffffffffffffffffffffffffffffffffff16815260200190815260200160002060009054906101000a900460ff16806119b157506119826115bb565b73ffffffffffffffffffffffffffffffffffffffff163373ffffffffffffffffffffffffffffffffffffffff16145b6119f0576040517f08c379a00000000000000000000000000000000000000000000000000000000081526004016119e790614066565b60405180910390fd5b6001600760008373ffffffffffffffffffffffffffffffffffffffff1673ffffffffffffffffffffffffffffffffffffffff16815260200190815260200160002060006101000a81548160ff0219169083151502179055508073ffffffffffffffffffffffffffffffffffffffff167f71fa9c99da9552de60a9ccf693f5a91456cbb8c205c8e532b1f55339903543cf60405160405180910390a250565b60606000806000600b6000868152602001908152602001600020604051806060016040529081600082018054611ac390613cfd565b80601f0160208091040260200160405190810160405280929190818152602001828054611aef90613cfd565b8015611b3c5780601f10611b1157610100808354040283529160200191611b3c565b820191906000526020600020905b815481529060010190602001808311611b1f57829003601f168201915b50505050508152602001600182015481526020016002820154815250509050806000015181602001518260400151935093509350509193909250565b611b80612709565b600560149054906101000a900460ff16611bcf576040517f08c379a0000000000000000000000000000000000000000000000000000000008152600401611bc690614343565b60405180910390fd5b611c3f7f314f33d36812fa77f857277e466e3b8ef8b3d560f8c84129b04c3be6509fd24e858585858080601f016020809104026020016040519081016040528093929190818152602001838380828437600081840152601f19601f82011690508083019250505050505050612acd565b8373ffffffffffffffffffffffffffffffffffffffff163373ffffffffffffffffffffffffffffffffffffffff167f0e9905d62635f049c2f4e11678ebf9dc3d1f8c4a653e290759b772e47ba00d00858585604051611ca0939291906142c5565b60405180910390a350505050565b611cb6612709565b6000600b6000838152602001908152602001600020604051806060016040529081600082018054611ce690613cfd565b80601f0160208091040260200160405190810160405280929190818152602001828054611d1290613cfd565b8015611d5f5780601f10611d3457610100808354040283529160200191611d5f565b820191906000526020600020905b815481529060010190602001808311611d4257829003601f168201915b505050505081526020016001820154815260200160028201548152505090506000816040015103611dc5576040517f08c379a0000000000000000000000000000000000000000000000000000000008152600401611dbc906143af565b60405180910390fd5b6000600c80549050905060005b81811015611e865783600c8281548110611def57611dee6143cf565b5b906000526020600020015403611e7957600c600183611e0e919061421f565b81548110611e1f57611e1e6143cf565b5b9060005260206000200154600c8281548110611e3e57611e3d6143cf565b5b9060005260206000200181905550600c805480611e5e57611e5d6143fe565b5b60019003818190600052602060002001600090559055611e86565b8080600101915050611dd2565b50827f3d9bba27d3e360d8c80645beed7e991454a8271bf6f269a24f7782be0f0d065483600001518460200151604051611ec192919061442d565b60405180910390a2600b600084815260200190815260200160002060008082016000611eed9190613299565b600182016000905560028201600090555050505050565b611f0c612709565b6000600860008373ffffffffffffffffffffffffffffffffffffffff1673ffffffffffffffffffffffffffffffffffffffff16815260200190815260200160002060006101000a81548160ff0219169083151502179055508073ffffffffffffffffffffffffffffffffffffffff167f9bef54c131a7d1db8da8d80942585e9ac4b3e3901d5fdf297a72d316d83fa62a60405160405180910390a250565b60066020528060005260406000206000915054906101000a900460ff1681565b6000600160008473ffffffffffffffffffffffffffffffffffffffff1673ffffffffffffffffffffffffffffffffffffffff16815260200190815260200160002060008373ffffffffffffffffffffffffffffffffffffffff1673ffffffffffffffffffffffffffffffffffffffff16815260200190815260200160002054905092915050565b60076020528060005260406000206000915054906101000a900460ff1681565b61207b33846128cd565b3373ffffffffffffffffffffffffffffffffffffffff163373ffffffffffffffffffffffffffffffffffffffff167fb7d0d6b60740753e9f16692a2f479472a1385aec2420fa43225b02f2ffa1afe78585856040516120dc939291906142c5565b60405180910390a3505050565b600660003373ffffffffffffffffffffffffffffffffffffffff1673ffffffffffffffffffffffffffffffffffffffff16815260200190815260200160002060009054906101000a900460ff168061217357506121446115bb565b73ffffffffffffffffffffffffffffffffffffffff163373ffffffffffffffffffffffffffffffffffffffff16145b6121b2576040517f08c379a00000000000000000000000000000000000000000000000000000000081526004016121a990614066565b60405180910390fd5b600560159054906101000a900460ff16612201576040517f08c379a00000000000000000000000000000000000000000000000000000000081526004016121f8906144a9565b60405180910390fd5b61220c8787876127d9565b8573ffffffffffffffffffffffffffffffffffffffff168773ffffffffffffffffffffffffffffffffffffffff163373ffffffffffffffffffffffffffffffffffffffff167f1594b99241b807e4dae1336624d71beff3bfbe2ea312c22677f38cdbfcbbd92c8860405161228091906135da565b60405180910390a450505050505050565b612299612709565b600073ffffffffffffffffffffffffffffffffffffffff168173ffffffffffffffffffffffffffffffffffffffff160361230b5760006040517f1e4fbdf7000000000000000000000000000000000000000000000000000000008152600401612302919061393a565b60405180910390fd5b6123148161294f565b50565b60003385600760008373ffffffffffffffffffffffffffffffffffffffff1673ffffffffffffffffffffffffffffffffffffffff16815260200190815260200160002060009054906101000a900460ff16156123a8576040517f08c379a000000000000000000000000000000000000000000000000000000000815260040161239f906140d2565b60405180910390fd5b600760008273ffffffffffffffffffffffffffffffffffffffff1673ffffffffffffffffffffffffffffffffffffffff16815260200190815260200160002060009054906101000a900460ff1615612435576040517f08c379a000000000000000000000000000000000000000000000000000000000815260040161242c9061413e565b60405180910390fd5b85600960003373ffffffffffffffffffffffffffffffffffffffff1673ffffffffffffffffffffffffffffffffffffffff16815260200190815260200160002060008a81526020019081526020016000205410156124c8576040517f08c379a00000000000000000000000000000000000000000000000000000000081526004016124bf906141d0565b60405180910390fd5b6001600a60006101000a81548160ff0219169083151502179055506124ee3388886127d9565b6000600a60006101000a81548160ff02191690831515021790555085600960003373ffffffffffffffffffffffffffffffffffffffff1673ffffffffffffffffffffffffffffffffffffffff16815260200190815260200160002060008a81526020019081526020016000206000828254612569919061421f565b9250508190555085600960008973ffffffffffffffffffffffffffffffffffffffff1673ffffffffffffffffffffffffffffffffffffffff16815260200190815260200160002060008a815260200190815260200160002060008282546125d09190614253565b925050819055508673ffffffffffffffffffffffffffffffffffffffff163373ffffffffffffffffffffffffffffffffffffffff16897f0f527c5f31fde91835354ad82e863e96d8637df7a0254bfb42879978fc047e568960405161263591906135da565b60405180910390a4879250505095945050505050565b612653612709565b6000600660008373ffffffffffffffffffffffffffffffffffffffff1673ffffffffffffffffffffffffffffffffffffffff16815260200190815260200160002060006101000a81548160ff021916908315150217905550600073ffffffffffffffffffffffffffffffffffffffff168173ffffffffffffffffffffffffffffffffffffffff167f50546e66e5f44d728365dc3908c63bc5cfeeab470722c1677e3073a6ac294aa160405160405180910390a350565b612711612790565b73ffffffffffffffffffffffffffffffffffffffff1661272f6115bb565b73ffffffffffffffffffffffffffffffffffffffff161461278e57612752612790565b6040517f118cdaa7000000000000000000000000000000000000000000000000000000008152600401612785919061393a565b60405180910390fd5b565b600033905090565b6127a58383836001612bcb565b505050565b6000806127b5612790565b90506127c2858285612a15565b6127cd8585856127d9565b60019150509392505050565b600073ffffffffffffffffffffffffffffffffffffffff168373ffffffffffffffffffffffffffffffffffffffff160361284b5760006040517f96c6fd1e000000000000000000000000000000000000000000000000000000008152600401612842919061393a565b60405180910390fd5b600073ffffffffffffffffffffffffffffffffffffffff168273ffffffffffffffffffffffffffffffffffffffff16036128bd5760006040517fec442f050000000000000000000000000000000000000000000000000000000081526004016128b4919061393a565b60405180910390fd5b6128c8838383612da2565b505050565b600073ffffffffffffffffffffffffffffffffffffffff168273ffffffffffffffffffffffffffffffffffffffff160361293f5760006040517f96c6fd1e000000000000000000000000000000000000000000000000000000008152600401612936919061393a565b60405180910390fd5b61294b82600083612da2565b5050565b6000600560009054906101000a900473ffffffffffffffffffffffffffffffffffffffff16905081600560006101000a81548173ffffffffffffffffffffffffffffffffffffffff021916908373ffffffffffffffffffffffffffffffffffffffff1602179055508173ffffffffffffffffffffffffffffffffffffffff168173ffffffffffffffffffffffffffffffffffffffff167f8be0079c531659141344cd1fd0a4f28419497f9722a3daafe3b4186f6b6457e060405160405180910390a35050565b6000612a218484611fca565b90507fffffffffffffffffffffffffffffffffffffffffffffffffffffffffffffffff811015612aa45781811015612a94578281836040517ffb8f41b2000000000000000000000000000000000000000000000000000000008152600401612a8b939291906144c9565b60405180910390fd5b612aa384848484036000612bcb565b5b50505050565b600080612ab5612790565b9050612ac28185856127d9565b600191505092915050565b6001600a60006101000a81548160ff021916908315150217905550612af28383612ff2565b6000600a60006101000a81548160ff02191690831515021790555081600960008573ffffffffffffffffffffffffffffffffffffffff1673ffffffffffffffffffffffffffffffffffffffff16815260200190815260200160002060008681526020019081526020016000206000828254612b6d9190614253565b925050819055508273ffffffffffffffffffffffffffffffffffffffff16847f6032e2468b0f94dfa63c61d6c8a84842a99c049263eae408a52b945020b6578d8484604051612bbd929190614544565b60405180910390a350505050565b600073ffffffffffffffffffffffffffffffffffffffff168473ffffffffffffffffffffffffffffffffffffffff1603612c3d5760006040517fe602df05000000000000000000000000000000000000000000000000000000008152600401612c34919061393a565b60405180910390fd5b600073ffffffffffffffffffffffffffffffffffffffff168373ffffffffffffffffffffffffffffffffffffffff1603612caf5760006040517f94280d62000000000000000000000000000000000000000000000000000000008152600401612ca6919061393a565b60405180910390fd5b81600160008673ffffffffffffffffffffffffffffffffffffffff1673ffffffffffffffffffffffffffffffffffffffff16815260200190815260200160002060008573ffffffffffffffffffffffffffffffffffffffff1673ffffffffffffffffffffffffffffffffffffffff168152602001908152602001600020819055508015612d9c578273ffffffffffffffffffffffffffffffffffffffff168473ffffffffffffffffffffffffffffffffffffffff167f8c5be1e5ebec7d5bd14f71427d1e84f3dd0314c0f7b2291e5b200ac8c7c3b92584604051612d9391906135da565b60405180910390a35b50505050565b600a60009054906101000a900460ff16612fe257600073ffffffffffffffffffffffffffffffffffffffff168373ffffffffffffffffffffffffffffffffffffffff1614612f255780600960008573ffffffffffffffffffffffffffffffffffffffff1673ffffffffffffffffffffffffffffffffffffffff16815260200190815260200160002060007f314f33d36812fa77f857277e466e3b8ef8b3d560f8c84129b04c3be6509fd24e8152602001908152602001600020541015612e9d576040517f08c379a0000000000000000000000000000000000000000000000000000000008152600401612e94906145e6565b60405180910390fd5b80600960008573ffffffffffffffffffffffffffffffffffffffff1673ffffffffffffffffffffffffffffffffffffffff16815260200190815260200160002060007f314f33d36812fa77f857277e466e3b8ef8b3d560f8c84129b04c3be6509fd24e81526020019081526020016000206000828254612f1d919061421f565b925050819055505b600073ffffffffffffffffffffffffffffffffffffffff168273ffffffffffffffffffffffffffffffffffffffff1614612fe15780600960008473ffffffffffffffffffffffffffffffffffffffff1673ffffffffffffffffffffffffffffffffffffffff16815260200190815260200160002060007f314f33d36812fa77f857277e466e3b8ef8b3d560f8c84129b04c3be6509fd24e81526020019081526020016000206000828254612fd99190614253565b925050819055505b5b612fed838383613074565b505050565b600073ffffffffffffffffffffffffffffffffffffffff168273ffffffffffffffffffffffffffffffffffffffff16036130645760006040517fec442f0500000000000000000000000000000000000000000000000000000000815260040161305b919061393a565b60405180910390fd5b61307060008383612da2565b5050565b600073ffffffffffffffffffffffffffffffffffffffff168373ffffffffffffffffffffffffffffffffffffffff16036130c65780600260008282546130ba9190614253565b92505081905550613199565b60008060008573ffffffffffffffffffffffffffffffffffffffff1673ffffffffffffffffffffffffffffffffffffffff16815260200190815260200160002054905081811015613152578381836040517fe450d38c000000000000000000000000000000000000000000000000000000008152600401613149939291906144c9565b60405180910390fd5b8181036000808673ffffffffffffffffffffffffffffffffffffffff1673ffffffffffffffffffffffffffffffffffffffff16815260200190815260200160002081905550505b600073ffffffffffffffffffffffffffffffffffffffff168273ffffffffffffffffffffffffffffffffffffffff16036131e2578060026000828254039250508190555061322f565b806000808473ffffffffffffffffffffffffffffffffffffffff1673ffffffffffffffffffffffffffffffffffffffff168152602001908152602001600020600082825401925050819055505b8173ffffffffffffffffffffffffffffffffffffffff168373ffffffffffffffffffffffffffffffffffffffff167fddf252ad1be2c89b69c2b068fc378daa952ba7f163c4a11628f55a4df523b3ef8360405161328c91906135da565b60405180910390a3505050565b5080546132a590613cfd565b6000825580601f106132b757506132d6565b601f0160209004906000526020600020908101906132d591906132d9565b5b50565b5b808211156132f25760008160009055506001016132da565b5090565b600080fd5b600080fd5b6000819050919050565b61331381613300565b811461331e57600080fd5b50565b6000813590506133308161330a565b92915050565b600080fd5b600080fd5b600080fd5b60008083601f84011261335b5761335a613336565b5b8235905067ffffffffffffffff8111156133785761337761333b565b5b60208301915083600182028301111561339457613393613340565b5b9250929050565b600080600080606085870312156133b5576133b46132f6565b5b60006133c387828801613321565b945050602085013567ffffffffffffffff8111156133e4576133e36132fb565b5b6133f087828801613345565b9350935050604061340387828801613321565b91505092959194509250565b600081519050919050565b600082825260208201905092915050565b60005b8381101561344957808201518184015260208101905061342e565b60008484015250505050565b6000601f19601f8301169050919050565b60006134718261340f565b61347b818561341a565b935061348b81856020860161342b565b61349481613455565b840191505092915050565b600060208201905081810360008301526134b98184613466565b905092915050565b600073ffffffffffffffffffffffffffffffffffffffff82169050919050565b60006134ec826134c1565b9050919050565b6134fc816134e1565b811461350757600080fd5b50565b600081359050613519816134f3565b92915050565b6000819050919050565b6135328161351f565b811461353d57600080fd5b50565b60008135905061354f81613529565b92915050565b6000806040838503121561356c5761356b6132f6565b5b600061357a8582860161350a565b925050602061358b85828601613540565b9150509250929050565b60008115159050919050565b6135aa81613595565b82525050565b60006020820190506135c560008301846135a1565b92915050565b6135d48161351f565b82525050565b60006020820190506135ef60008301846135cb565b92915050565b60006020828403121561360b5761360a6132f6565b5b60006136198482850161350a565b91505092915050565b60008083601f84011261363857613637613336565b5b8235905067ffffffffffffffff8111156136555761365461333b565b5b60208301915083600182028301111561367157613670613340565b5b9250929050565b60008060008060608587031215613692576136916132f6565b5b60006136a08782880161350a565b94505060206136b187828801613540565b935050604085013567ffffffffffffffff8111156136d2576136d16132fb565b5b6136de87828801613622565b925092505092959194509250565b60007fff0000000000000000000000000000000000000000000000000000000000000082169050919050565b613721816136ec565b82525050565b61373081613300565b82525050565b600060608201905061374b6000830186613718565b6137586020830185613727565b6137656040830184613727565b949350505050565b600080600060608486031215613786576137856132f6565b5b60006137948682870161350a565b93505060206137a58682870161350a565b92505060406137b686828701613540565b9150509250925092565b600080604083850312156137d7576137d66132f6565b5b60006137e585828601613321565b92505060206137f68582860161350a565b9150509250929050565b600060ff82169050919050565b61381681613800565b82525050565b6000602082019050613831600083018461380d565b92915050565b60006020828403121561384d5761384c6132f6565b5b600061385b84828501613540565b91505092915050565b60008060006060848603121561387d5761387c6132f6565b5b600061388b86828701613321565b935050602061389c86828701613321565b92505060406138ad86828701613540565b9150509250925092565b600080600080606085870312156138d1576138d06132f6565b5b60006138df87828801613321565b94505060206138f087828801613540565b935050604085013567ffffffffffffffff811115613911576139106132fb565b5b61391d87828801613622565b925092505092959194509250565b613934816134e1565b82525050565b600060208201905061394f600083018461392b565b92915050565b600060208201905061396a6000830184613727565b92915050565b600081519050919050565b600082825260208201905092915050565b6000819050602082019050919050565b6139a581613300565b82525050565b60006139b7838361399c565b60208301905092915050565b6000602082019050919050565b60006139db82613970565b6139e5818561397b565b93506139f08361398c565b8060005b83811015613a21578151613a0888826139ab565b9750613a13836139c3565b9250506001810190506139f4565b5085935050505092915050565b60006020820190508181036000830152613a4881846139d0565b905092915050565b600060208284031215613a6657613a656132f6565b5b6000613a7484828501613321565b91505092915050565b60006060820190508181036000830152613a978186613466565b9050613aa66020830185613727565b613ab360408301846135cb565b949350505050565b60008060408385031215613ad257613ad16132f6565b5b6000613ae08582860161350a565b9250506020613af18582860161350a565b9150509250929050565b600080600060408486031215613b1457613b136132f6565b5b6000613b2286828701613540565b935050602084013567ffffffffffffffff811115613b4357613b426132fb565b5b613b4f86828701613622565b92509250509250925092565b600080600080600080600060a0888a031215613b7a57613b796132f6565b5b6000613b888a828b0161350a565b9750506020613b998a828b0161350a565b9650506040613baa8a828b01613540565b955050606088013567ffffffffffffffff811115613bcb57613bca6132fb565b5b613bd78a828b01613622565b9450945050608088013567ffffffffffffffff811115613bfa57613bf96132fb565b5b613c068a828b01613622565b925092505092959891949750929550565b600080600080600060808688031215613c3357613c326132f6565b5b6000613c4188828901613321565b9550506020613c528882890161350a565b9450506040613c6388828901613540565b935050606086013567ffffffffffffffff811115613c8457613c836132fb565b5b613c9088828901613622565b92509250509295509295909350565b7f4e487b7100000000000000000000000000000000000000000000000000000000600052604160045260246000fd5b7f4e487b7100000000000000000000000000000000000000000000000000000000600052602260045260246000fd5b60006002820490506001821680613d1557607f821691505b602082108103613d2857613d27613cce565b5b50919050565b60008190508160005260206000209050919050565b60006020601f8301049050919050565b600082821b905092915050565b600060088302613d907fffffffffffffffffffffffffffffffffffffffffffffffffffffffffffffffff82613d53565b613d9a8683613d53565b95508019841693508086168417925050509392505050565b6000819050919050565b6000613dd7613dd2613dcd8461351f565b613db2565b61351f565b9050919050565b6000819050919050565b613df183613dbc565b613e05613dfd82613dde565b848454613d60565b825550505050565b600090565b613e1a613e0d565b613e25818484613de8565b505050565b5b81811015613e4957613e3e600082613e12565b600181019050613e2b565b5050565b601f821115613e8e57613e5f81613d2e565b613e6884613d43565b81016020851015613e77578190505b613e8b613e8385613d43565b830182613e2a565b50505b505050565b600082821c905092915050565b6000613eb160001984600802613e93565b1980831691505092915050565b6000613eca8383613ea0565b9150826002028217905092915050565b613ee38261340f565b67ffffffffffffffff811115613efc57613efb613c9f565b5b613f068254613cfd565b613f11828285613e4d565b600060209050601f831160018114613f445760008415613f32578287015190505b613f3c8582613ebe565b865550613fa4565b601f198416613f5286613d2e565b60005b82811015613f7a57848901518255600182019150602085019450602081019050613f55565b86831015613f975784890151613f93601f891682613ea0565b8355505b6001600288020188555050505b505050505050565b82818337600083830152505050565b6000613fc7838561341a565b9350613fd4838584613fac565b613fdd83613455565b840190509392505050565b60006040820190508181036000830152614003818587613fbb565b90506140126020830184613727565b949350505050565b7f53414c543a206e6f74206120636f6e74726f6c6c657200000000000000000000600082015250565b600061405060168361341a565b915061405b8261401a565b602082019050919050565b6000602082019050818103600083015261407f81614043565b9050919050565b7f53414c543a2073656e64657220697320626c6f636b6564000000000000000000600082015250565b60006140bc60178361341a565b91506140c782614086565b602082019050919050565b600060208201905081810360008301526140eb816140af565b9050919050565b7f53414c543a20726563697069656e7420697320626c6f636b6564000000000000600082015250565b6000614128601a8361341a565b9150614133826140f2565b602082019050919050565b600060208201905081810360008301526141578161411b565b9050919050565b7f53414c543a20696e73756666696369656e7420706172746974696f6e2062616c60008201527f616e636500000000000000000000000000000000000000000000000000000000602082015250565b60006141ba60248361341a565b91506141c58261415e565b604082019050919050565b600060208201905081810360008301526141e9816141ad565b9050919050565b7f4e487b7100000000000000000000000000000000000000000000000000000000600052601160045260246000fd5b600061422a8261351f565b91506142358361351f565b925082820390508181111561424d5761424c6141f0565b5b92915050565b600061425e8261351f565b91506142698361351f565b9250828201905080821115614281576142806141f0565b5b92915050565b600082825260208201905092915050565b60006142a48385614287565b93506142b1838584613fac565b6142ba83613455565b840190509392505050565b60006040820190506142da60008301866135cb565b81810360208301526142ed818486614298565b9050949350505050565b7f53414c543a2069737375616e6365206973206c6f636b65640000000000000000600082015250565b600061432d60188361341a565b9150614338826142f7565b602082019050919050565b6000602082019050818103600083015261435c81614320565b9050919050565b7f53414c543a20646f63756d656e7420646f6573206e6f74206578697374000000600082015250565b6000614399601d8361341a565b91506143a482614363565b602082019050919050565b600060208201905081810360008301526143c88161438c565b9050919050565b7f4e487b7100000000000000000000000000000000000000000000000000000000600052603260045260246000fd5b7f4e487b7100000000000000000000000000000000000000000000000000000000600052603160045260246000fd5b600060408201905081810360008301526144478185613466565b90506144566020830184613727565b9392505050565b7f53414c543a20636f6e74726f6c6c6162696c697479207265766f6b6564000000600082015250565b6000614493601d8361341a565b915061449e8261445d565b602082019050919050565b600060208201905081810360008301526144c281614486565b9050919050565b60006060820190506144de600083018661392b565b6144eb60208301856135cb565b6144f860408301846135cb565b949350505050565b600081519050919050565b600061451682614500565b6145208185614287565b935061453081856020860161342b565b61453981613455565b840191505092915050565b600060408201905061455960008301856135cb565b818103602083015261456b818461450b565b90509392505050565b7f53414c543a20696e73756666696369656e7420756e6c6f636b65642062616c6160008201527f6e63650000000000000000000000000000000000000000000000000000000000602082015250565b60006145d060238361341a565b91506145db82614574565b604082019050919050565b600060208201905081810360008301526145ff816145c3565b905091905056fea264697066735822122031bd1481f912cf28fda64120d7865a45ec71fce264e8ded8f9f2c47b4f40099064736f6c634300081c0033",
  "linkReferences": {},
  "deployedLinkReferences": {}
}