{
  "_format": "hh-sol-artifact-1",
  "contractName": "ClearingHouse",
  "sourceName": "contracts/CH.sol",
  "abi": [
    {
      "inputs": [
        {
          "internalType": "contract IERC20",
          "name": "_collateralToken",
          "type": "address"
        },
        {
          "internalType": "address",
          "name": "trusteeOwner",
          "type": "address"
        }
      ],
      "stateMutability": "nonpayable",
      "type": "constructor"
    },
    {
      "inputs": [],
      "name": "CollateralAlreadyReleased",
      "type": "error"
    },
    {
      "inputs": [
        {
          "internalType": "uint256",
          "name": "unlockAt",
          "type": "uint256"
        }
      ],
      "name": "CollateralStillLocked",
      "type": "error"
    },
    {
      "inputs": [],
      "name": "InvalidAmount",
      "type": "error"
    },
    {
      "inputs": [],
      "name": "InvalidBeneficiary",
      "type": "error"
    },
    {
      "inputs": [],
      "name": "InvalidToken",
      "type": "error"
    },
    {
      "inputs": [],
      "name": "InvalidUnlockTime",
      "type": "error"
    },
    {
      "inputs": [
        {
          "internalType": "address",
          "name": "owner",
          "type": "address"
        }
      ],
      "name": "OwnableInvalidOwner",
      "type": "error"
    },
    {
      "inputs": [
        {
          "internalType": "address",
          "name": "account",
          "type": "address"
        }
      ],
      "name": "OwnableUnauthorizedAccount",
      "type": "error"
    },
    {
      "inputs": [],
      "name": "PositionNotFound",
      "type": "error"
    },
    {
      "inputs": [],
      "name": "ReentrancyGuardReentrantCall",
      "type": "error"
    },
    {
      "inputs": [
        {
          "internalType": "address",
          "name": "token",
          "type": "address"
        }
      ],
      "name": "SafeERC20FailedOperation",
      "type": "error"
    },
    {
      "anonymous": false,
      "inputs": [
        {
          "indexed": true,
          "internalType": "uint256",
          "name": "positionId",
          "type": "uint256"
        },
        {
          "indexed": true,
          "internalType": "address",
          "name": "depositor",
          "type": "address"
        },
        {
          "indexed": true,
          "internalType": "address",
          "name": "beneficiary",
          "type": "address"
        },
        {
          "indexed": false,
          "internalType": "uint256",
          "name": "amount",
          "type": "uint256"
        }
      ],
      "name": "CollateralCancelled",
      "type": "event"
    },
    {
      "anonymous": false,
      "inputs": [
        {
          "indexed": true,
          "internalType": "uint256",
          "name": "positionId",
          "type": "uint256"
        },
        {
          "indexed": true,
          "internalType": "address",
          "name": "depositor",
          "type": "address"
        },
        {
          "indexed": true,
          "internalType": "address",
          "name": "beneficiary",
          "type": "address"
        },
        {
          "indexed": false,
          "internalType": "uint256",
          "name": "amount",
          "type": "uint256"
        },
        {
          "indexed": false,
          "internalType": "uint256",
          "name": "unlockAt",
          "type": "uint256"
        }
      ],
      "name": "CollateralDeposited",
      "type": "event"
    },
    {
      "anonymous": false,
      "inputs": [
        {
          "indexed": true,
          "internalType": "uint256",
          "name": "positionId",
          "type": "uint256"
        },
        {
          "indexed": true,
          "internalType": "address",
          "name": "depositor",
          "type": "address"
        },
        {
          "indexed": true,
          "internalType": "address",
          "name": "beneficiary",
          "type": "address"
        },
        {
          "indexed": false,
          "internalType": "uint256",
          "name": "amount",
          "type": "uint256"
        }
      ],
      "name": "CollateralReleasedToBeneficiary",
      "type": "event"
    },
    {
      "anonymous": false,
      "inputs": [
        {
          "indexed": true,
          "internalType": "uint256",
          "name": "positionId",
          "type": "uint256"
        },
        {
          "indexed": true,
          "internalType": "address",
          "name": "depositor",
          "type": "address"
        },
        {
          "indexed": false,
          "internalType": "uint256",
          "name": "amount",
          "type": "uint256"
        }
      ],
      "name": "CollateralReleasedToDepositor",
      "type": "event"
    },
    {
      "anonymous": false,
      "inputs": [
        {
          "indexed": true,
          "internalType": "address",
          "name": "previousOwner",
          "type": "address"
        },
        {
          "indexed": true,
          "internalType": "address",
          "name": "newOwner",
          "type": "address"
        }
      ],
      "name": "OwnershipTransferred",
      "type": "event"
    },
    {
      "inputs": [
        {
          "internalType": "uint256",
          "name": "positionId",
          "type": "uint256"
        }
      ],
      "name": "cancelAndReturnToDepositor",
      "outputs": [],
      "stateMutability": "nonpayable",
      "type": "function"
    },
    {
      "inputs": [],
      "name": "collateralToken",
      "outputs": [
        {
          "internalType": "contract IERC20",
          "name": "",
          "type": "address"
        }
      ],
      "stateMutability": "view",
      "type": "function"
    },
    {
      "inputs": [
        {
          "internalType": "uint256",
          "name": "amount",
          "type": "uint256"
        },
        {
          "internalType": "address",
          "name": "beneficiary",
          "type": "address"
        },
        {
          "internalType": "uint256",
          "name": "unlockAt",
          "type": "uint256"
        }
      ],
      "name": "depositCollateral",
      "outputs": [
        {
          "internalType": "uint256",
          "name": "positionId",
          "type": "uint256"
        }
      ],
      "stateMutability": "nonpayable",
      "type": "function"
    },
    {
      "inputs": [
        {
          "internalType": "uint256",
          "name": "positionId",
          "type": "uint256"
        }
      ],
      "name": "getPosition",
      "outputs": [
        {
          "internalType": "address",
          "name": "depositor",
          "type": "address"
        },
        {
          "internalType": "address",
          "name": "beneficiary",
          "type": "address"
        },
        {
          "internalType": "uint256",
          "name": "amount",
          "type": "uint256"
        },
        {
          "internalType": "uint256",
          "name": "unlockAt",
          "type": "uint256"
        },
        {
          "internalType": "bool",
          "name": "released",
          "type": "bool"
        }
      ],
      "stateMutability": "view",
      "type": "function"
    },
    {
      "inputs": [
        {
          "internalType": "address",
          "name": "",
          "type": "address"
        }
      ],
      "name": "guaranteedToBeneficiary",
      "outputs": [
        {
          "internalType": "uint256",
          "name": "",
          "type": "uint256"
        }
      ],
      "stateMutability": "view",
      "type": "function"
    },
    {
      "inputs": [
        {
          "internalType": "address",
          "name": "",
          "type": "address"
        }
      ],
      "name": "lockedByDepositor",
      "outputs": [
        {
          "internalType": "uint256",
          "name": "",
          "type": "uint256"
        }
      ],
      "stateMutability": "view",
      "type": "function"
    },
    {
      "inputs": [],
      "name": "nextPositionId",
      "outputs": [
        {
          "internalType": "uint256",
          "name": "",
          "type": "uint256"
        }
      ],
      "stateMutability": "view",
      "type": "function"
    },
    {
      "inputs": [],
      "name": "owner",
      "outputs": [
        {
          "internalType": "address",
          "name": "",
          "type": "address"
        }
      ],
      "stateMutability": "view",
      "type": "function"
    },
    {
      "inputs": [
        {
          "internalType": "uint256",
          "name": "",
          "type": "uint256"
        }
      ],
      "name": "positions",
      "outputs": [
        {
          "internalType": "address",
          "name": "depositor",
          "type": "address"
        },
        {
          "internalType": "address",
          "name": "beneficiary",
          "type": "address"
        },
        {
          "internalType": "uint256",
          "name": "amount",
          "type": "uint256"
        },
        {
          "internalType": "uint256",
          "name": "unlockAt",
          "type": "uint256"
        },
        {
          "internalType": "bool",
          "name": "released",
          "type": "bool"
        }
      ],
      "stateMutability": "view",
      "type": "function"
    },
    {
      "inputs": [
        {
          "internalType": "uint256",
          "name": "positionId",
          "type": "uint256"
        }
      ],
      "name": "releaseCollateralToBeneficiary",
      "outputs": [],
      "stateMutability": "nonpayable",
      "type": "function"
    },
    {
      "inputs": [
        {
          "internalType": "uint256",
          "name": "positionId",
          "type": "uint256"
        }
      ],
      "name": "releaseCollateralToDepositor",
      "outputs": [],
      "stateMutability": "nonpayable",
      "type": "function"
    },
    {
      "inputs": [],
      "name": "renounceOwnership",
      "outputs": [],
      "stateMutability": "nonpayable",
      "type": "function"
    },
    {
      "inputs": [],
      "name": "totalLocked",
      "outputs": [
        {
          "internalType": "uint256",
          "name": "",
          "type": "uint256"
        }
      ],
      "stateMutability": "view",
      "type": "function"
    },
    {
      "inputs": [
        {
          "internalType": "address",
          "name": "newOwner",
          "type": "address"
        }
      ],
      "name": "transferOwnership",
      "outputs": [],
      "stateMutability": "nonpayable",
      "type": "function"
    }
  ],
  "bytecode": "0x60a060405234801561001057600080fd5b50604051611ebc380380611ebc833981810160405281019061003291906102ca565b80600073ffffffffffffffffffffffffffffffffffffffff168173ffffffffffffffffffffffffffffffffffffffff16036100a55760006040517f1e4fbdf700000000000000000000000000000000000000000000000000000000815260040161009c9190610319565b60405180910390fd5b6100b48161016560201b60201c565b5060018081905550600073ffffffffffffffffffffffffffffffffffffffff168273ffffffffffffffffffffffffffffffffffffffff1603610122576040517fc1ab6dc100000000000000000000000000000000000000000000000000000000815260040160405180910390fd5b8173ffffffffffffffffffffffffffffffffffffffff1660808173ffffffffffffffffffffffffffffffffffffffff168152505060016003819055505050610334565b60008060009054906101000a900473ffffffffffffffffffffffffffffffffffffffff169050816000806101000a81548173ffffffffffffffffffffffffffffffffffffffff021916908373ffffffffffffffffffffffffffffffffffffffff1602179055508173ffffffffffffffffffffffffffffffffffffffff168173ffffffffffffffffffffffffffffffffffffffff167f8be0079c531659141344cd1fd0a4f28419497f9722a3daafe3b4186f6b6457e060405160405180910390a35050565b600080fd5b600073ffffffffffffffffffffffffffffffffffffffff82169050919050565b60006102598261022e565b9050919050565b600061026b8261024e565b9050919050565b61027b81610260565b811461028657600080fd5b50565b60008151905061029881610272565b92915050565b6102a78161024e565b81146102b257600080fd5b50565b6000815190506102c48161029e565b92915050565b600080604083850312156102e1576102e0610229565b5b60006102ef85828601610289565b9250506020610300858286016102b5565b9150509250929050565b6103138161024e565b82525050565b600060208201905061032e600083018461030a565b92915050565b608051611b5161036b600039600081816105310152818161093601528181610a8101528181610d6001526112aa0152611b516000f3fe608060405234801561001057600080fd5b50600436106100ea5760003560e01c8063b2016bd41161008c578063e9cdc56211610066578063e9cdc56214610229578063eb02c30114610259578063ebea51b41461028d578063f2fde38b146102bd576100ea565b8063b2016bd4146101bf578063c99354ea146101dd578063e888cc1f146101f9576100ea565b8063899346c7116100c8578063899346c7146101335780638da5cb5b146101515780638fcf5ce81461016f57806399fbab881461018b576100ea565b80634a189690146100ef578063568914121461010b578063715018a614610129575b600080fd5b6101096004803603810190610104919061176c565b6102d9565b005b610113610630565b60405161012091906117a8565b60405180910390f35b610131610636565b005b61013b61064a565b60405161014891906117a8565b60405180910390f35b610159610650565b6040516101669190611804565b60405180910390f35b6101896004803603810190610184919061176c565b610679565b005b6101a560048036038101906101a0919061176c565b6109fc565b6040516101b695949392919061183a565b60405180910390f35b6101c7610a7f565b6040516101d491906118ec565b60405180910390f35b6101f760048036038101906101f2919061176c565b610aa3565b005b610213600480360381019061020e9190611933565b610e61565b60405161022091906117a8565b60405180910390f35b610243600480360381019061023e9190611933565b610e79565b60405161025091906117a8565b60405180910390f35b610273600480360381019061026e919061176c565b610e91565b60405161028495949392919061183a565b60405180910390f35b6102a760048036038101906102a29190611960565b610fb3565b6040516102b491906117a8565b60405180910390f35b6102d760048036038101906102d29190611933565b611366565b005b6102e16113ec565b6102e9611473565b6000600460008381526020019081526020016000209050600073ffffffffffffffffffffffffffffffffffffffff168160000160009054906101000a900473ffffffffffffffffffffffffffffffffffffffff1673ffffffffffffffffffffffffffffffffffffffff160361038a576040517f6ec9be1100000000000000000000000000000000000000000000000000000000815260040160405180910390fd5b8060040160009054906101000a900460ff16156103d3576040517fbb774ccb00000000000000000000000000000000000000000000000000000000815260040160405180910390fd5b60008160020154905060018260040160006101000a81548160ff02191690831515021790555080600560008460000160009054906101000a900473ffffffffffffffffffffffffffffffffffffffff1673ffffffffffffffffffffffffffffffffffffffff1673ffffffffffffffffffffffffffffffffffffffff168152602001908152602001600020600082825461046c91906119e2565b9250508190555080600660008460010160009054906101000a900473ffffffffffffffffffffffffffffffffffffffff1673ffffffffffffffffffffffffffffffffffffffff1673ffffffffffffffffffffffffffffffffffffffff16815260200190815260200160002060008282546104e691906119e2565b9250508190555080600260008282546104ff91906119e2565b925050819055506105758260000160009054906101000a900473ffffffffffffffffffffffffffffffffffffffff16827f000000000000000000000000000000000000000000000000000000000000000073ffffffffffffffffffffffffffffffffffffffff166114b99092919063ffffffff16565b8160010160009054906101000a900473ffffffffffffffffffffffffffffffffffffffff1673ffffffffffffffffffffffffffffffffffffffff168260000160009054906101000a900473ffffffffffffffffffffffffffffffffffffffff1673ffffffffffffffffffffffffffffffffffffffff16847ff5ad1997801b8c384cff80408aa07e2b6a9516bb0df8b30a7f370476b4709eb48460405161061b91906117a8565b60405180910390a4505061062d611538565b50565b60025481565b61063e6113ec565b6106486000611541565b565b60035481565b60008060009054906101000a900473ffffffffffffffffffffffffffffffffffffffff16905090565b6106816113ec565b610689611473565b806000600460008381526020019081526020016000209050600073ffffffffffffffffffffffffffffffffffffffff168160000160009054906101000a900473ffffffffffffffffffffffffffffffffffffffff1673ffffffffffffffffffffffffffffffffffffffff160361072b576040517f6ec9be1100000000000000000000000000000000000000000000000000000000815260040160405180910390fd5b80600301544210156107785780600301546040517f315ee98a00000000000000000000000000000000000000000000000000000000815260040161076f91906117a8565b60405180910390fd5b60006004600085815260200190815260200160002090508060040160009054906101000a900460ff16156107d8576040517fbb774ccb00000000000000000000000000000000000000000000000000000000815260040160405180910390fd5b60008160020154905060018260040160006101000a81548160ff02191690831515021790555080600560008460000160009054906101000a900473ffffffffffffffffffffffffffffffffffffffff1673ffffffffffffffffffffffffffffffffffffffff1673ffffffffffffffffffffffffffffffffffffffff168152602001908152602001600020600082825461087191906119e2565b9250508190555080600660008460010160009054906101000a900473ffffffffffffffffffffffffffffffffffffffff1673ffffffffffffffffffffffffffffffffffffffff1673ffffffffffffffffffffffffffffffffffffffff16815260200190815260200160002060008282546108eb91906119e2565b92505081905550806002600082825461090491906119e2565b9250508190555061097a8260000160009054906101000a900473ffffffffffffffffffffffffffffffffffffffff16827f000000000000000000000000000000000000000000000000000000000000000073ffffffffffffffffffffffffffffffffffffffff166114b99092919063ffffffff16565b8160000160009054906101000a900473ffffffffffffffffffffffffffffffffffffffff1673ffffffffffffffffffffffffffffffffffffffff16857fcbaa603660ba3a8cd9262b829029ac0ed6186edeca1a037a2fbd98e90fd42c3b836040516109e591906117a8565b60405180910390a3505050506109f9611538565b50565b60046020528060005260406000206000915090508060000160009054906101000a900473ffffffffffffffffffffffffffffffffffffffff16908060010160009054906101000a900473ffffffffffffffffffffffffffffffffffffffff16908060020154908060030154908060040160009054906101000a900460ff16905085565b7f000000000000000000000000000000000000000000000000000000000000000081565b610aab6113ec565b610ab3611473565b806000600460008381526020019081526020016000209050600073ffffffffffffffffffffffffffffffffffffffff168160000160009054906101000a900473ffffffffffffffffffffffffffffffffffffffff1673ffffffffffffffffffffffffffffffffffffffff1603610b55576040517f6ec9be1100000000000000000000000000000000000000000000000000000000815260040160405180910390fd5b8060030154421015610ba25780600301546040517f315ee98a000000000000000000000000000000000000000000000000000000008152600401610b9991906117a8565b60405180910390fd5b60006004600085815260200190815260200160002090508060040160009054906101000a900460ff1615610c02576040517fbb774ccb00000000000000000000000000000000000000000000000000000000815260040160405180910390fd5b60008160020154905060018260040160006101000a81548160ff02191690831515021790555080600560008460000160009054906101000a900473ffffffffffffffffffffffffffffffffffffffff1673ffffffffffffffffffffffffffffffffffffffff1673ffffffffffffffffffffffffffffffffffffffff1681526020019081526020016000206000828254610c9b91906119e2565b9250508190555080600660008460010160009054906101000a900473ffffffffffffffffffffffffffffffffffffffff1673ffffffffffffffffffffffffffffffffffffffff1673ffffffffffffffffffffffffffffffffffffffff1681526020019081526020016000206000828254610d1591906119e2565b925050819055508060026000828254610d2e91906119e2565b92505081905550610da48260010160009054906101000a900473ffffffffffffffffffffffffffffffffffffffff16827f000000000000000000000000000000000000000000000000000000000000000073ffffffffffffffffffffffffffffffffffffffff166114b99092919063ffffffff16565b8160010160009054906101000a900473ffffffffffffffffffffffffffffffffffffffff1673ffffffffffffffffffffffffffffffffffffffff168260000160009054906101000a900473ffffffffffffffffffffffffffffffffffffffff1673ffffffffffffffffffffffffffffffffffffffff16867fd7641a917c5081bb977ea2d4b12630fe1359d556fdd0183a307691cd1aa01fe084604051610e4a91906117a8565b60405180910390a450505050610e5e611538565b50565b60056020528060005260406000206000915090505481565b60066020528060005260406000206000915090505481565b600080600080600080600460008881526020019081526020016000209050600073ffffffffffffffffffffffffffffffffffffffff168160000160009054906101000a900473ffffffffffffffffffffffffffffffffffffffff1673ffffffffffffffffffffffffffffffffffffffff1603610f39576040517f6ec9be1100000000000000000000000000000000000000000000000000000000815260040160405180910390fd5b8060000160009054906101000a900473ffffffffffffffffffffffffffffffffffffffff168160010160009054906101000a900473ffffffffffffffffffffffffffffffffffffffff16826002015483600301548460040160009054906101000a900460ff16955095509550955095505091939590929450565b6000610fbd611473565b60008403610ff7576040517f2c5211c600000000000000000000000000000000000000000000000000000000815260040160405180910390fd5b600073ffffffffffffffffffffffffffffffffffffffff168373ffffffffffffffffffffffffffffffffffffffff160361105d576040517f5566df5c00000000000000000000000000000000000000000000000000000000815260040160405180910390fd5b428211611096576040517fa5574da600000000000000000000000000000000000000000000000000000000815260040160405180910390fd5b600360008154809291906110a990611a16565b9190505590506040518060a001604052803373ffffffffffffffffffffffffffffffffffffffff1681526020018473ffffffffffffffffffffffffffffffffffffffff168152602001858152602001838152602001600015158152506004600083815260200190815260200160002060008201518160000160006101000a81548173ffffffffffffffffffffffffffffffffffffffff021916908373ffffffffffffffffffffffffffffffffffffffff16021790555060208201518160010160006101000a81548173ffffffffffffffffffffffffffffffffffffffff021916908373ffffffffffffffffffffffffffffffffffffffff160217905550604082015181600201556060820151816003015560808201518160040160006101000a81548160ff02191690831515021790555090505083600560003373ffffffffffffffffffffffffffffffffffffffff1673ffffffffffffffffffffffffffffffffffffffff168152602001908152602001600020600082825461122c9190611a5e565b9250508190555083600660008573ffffffffffffffffffffffffffffffffffffffff1673ffffffffffffffffffffffffffffffffffffffff16815260200190815260200160002060008282546112829190611a5e565b92505081905550836002600082825461129b9190611a5e565b925050819055506112ef3330867f000000000000000000000000000000000000000000000000000000000000000073ffffffffffffffffffffffffffffffffffffffff16611605909392919063ffffffff16565b8273ffffffffffffffffffffffffffffffffffffffff163373ffffffffffffffffffffffffffffffffffffffff16827f3b7707352e14ab5cd94441e99f646f79c40bfb3ede89a610932e1790a23b34c5878660405161134f929190611a92565b60405180910390a461135f611538565b9392505050565b61136e6113ec565b600073ffffffffffffffffffffffffffffffffffffffff168173ffffffffffffffffffffffffffffffffffffffff16036113e05760006040517f1e4fbdf70000000000000000000000000000000000000000000000000000000081526004016113d79190611804565b60405180910390fd5b6113e981611541565b50565b6113f4611687565b73ffffffffffffffffffffffffffffffffffffffff16611412610650565b73ffffffffffffffffffffffffffffffffffffffff161461147157611435611687565b6040517f118cdaa70000000000000000000000000000000000000000000000000000000081526004016114689190611804565b60405180910390fd5b565b6002600154036114af576040517f3ee5aeb500000000000000000000000000000000000000000000000000000000815260040160405180910390fd5b6002600181905550565b611533838473ffffffffffffffffffffffffffffffffffffffff1663a9059cbb85856040516024016114ec929190611abb565b604051602081830303815290604052915060e01b6020820180517bffffffffffffffffffffffffffffffffffffffffffffffffffffffff838183161783525050505061168f565b505050565b60018081905550565b60008060009054906101000a900473ffffffffffffffffffffffffffffffffffffffff169050816000806101000a81548173ffffffffffffffffffffffffffffffffffffffff021916908373ffffffffffffffffffffffffffffffffffffffff1602179055508173ffffffffffffffffffffffffffffffffffffffff168173ffffffffffffffffffffffffffffffffffffffff167f8be0079c531659141344cd1fd0a4f28419497f9722a3daafe3b4186f6b6457e060405160405180910390a35050565b611681848573ffffffffffffffffffffffffffffffffffffffff166323b872dd86868660405160240161163a93929190611ae4565b604051602081830303815290604052915060e01b6020820180517bffffffffffffffffffffffffffffffffffffffffffffffffffffffff838183161783525050505061168f565b50505050565b600033905090565b600080602060008451602086016000885af1806116b2576040513d6000823e3d81fd5b3d9250600051915050600082146116cd5760018114156116e9565b60008473ffffffffffffffffffffffffffffffffffffffff163b145b1561172b57836040517f5274afe70000000000000000000000000000000000000000000000000000000081526004016117229190611804565b60405180910390fd5b50505050565b600080fd5b6000819050919050565b61174981611736565b811461175457600080fd5b50565b60008135905061176681611740565b92915050565b60006020828403121561178257611781611731565b5b600061179084828501611757565b91505092915050565b6117a281611736565b82525050565b60006020820190506117bd6000830184611799565b92915050565b600073ffffffffffffffffffffffffffffffffffffffff82169050919050565b60006117ee826117c3565b9050919050565b6117fe816117e3565b82525050565b600060208201905061181960008301846117f5565b92915050565b60008115159050919050565b6118348161181f565b82525050565b600060a08201905061184f60008301886117f5565b61185c60208301876117f5565b6118696040830186611799565b6118766060830185611799565b611883608083018461182b565b9695505050505050565b6000819050919050565b60006118b26118ad6118a8846117c3565b61188d565b6117c3565b9050919050565b60006118c482611897565b9050919050565b60006118d6826118b9565b9050919050565b6118e6816118cb565b82525050565b600060208201905061190160008301846118dd565b92915050565b611910816117e3565b811461191b57600080fd5b50565b60008135905061192d81611907565b92915050565b60006020828403121561194957611948611731565b5b60006119578482850161191e565b91505092915050565b60008060006060848603121561197957611978611731565b5b600061198786828701611757565b93505060206119988682870161191e565b92505060406119a986828701611757565b9150509250925092565b7f4e487b7100000000000000000000000000000000000000000000000000000000600052601160045260246000fd5b60006119ed82611736565b91506119f883611736565b9250828203905081811115611a1057611a0f6119b3565b5b92915050565b6000611a2182611736565b91507fffffffffffffffffffffffffffffffffffffffffffffffffffffffffffffffff8203611a5357611a526119b3565b5b600182019050919050565b6000611a6982611736565b9150611a7483611736565b9250828201905080821115611a8c57611a8b6119b3565b5b92915050565b6000604082019050611aa76000830185611799565b611ab46020830184611799565b9392505050565b6000604082019050611ad060008301856117f5565b611add6020830184611799565b9392505050565b6000606082019050611af960008301866117f5565b611b0660208301856117f5565b611b136040830184611799565b94935050505056fea26469706673582212202618636118783593b8c70f865f275d12e3d313b3a918b3323ff92270085301a264736f6c634300081c0033",
  "linkReferences": {},
  "deployedLinkReferences": {}
}