{
  "_format": "hh-sol-artifact-1",
  "contractName": "SALT",
  "sourceName": "contracts/SALT.sol",
  "abi": [
    {
      "inputs": [],
      "stateMutability": "nonpayable",
      "type": "constructor"
    },
    {
      "inputs": [
        {
          "internalType": "address",
          "name": "spender",
          "type": "address"
        },
        {
          "internalType": "uint256",
          "name": "allowance",
          "type": "uint256"
        },
        {
          "internalType": "uint256",
          "name": "needed",
          "type": "uint256"
        }
      ],
      "name": "ERC20InsufficientAllowance",
      "type": "error"
    },
    {
      "inputs": [
        {
          "internalType": "address",
          "name": "sender",
          "type": "address"
        },
        {
          "internalType": "uint256",
          "name": "balance",
          "type": "uint256"
        },
        {
          "internalType": "uint256",
          "name": "needed",
          "type": "uint256"
        }
      ],
      "name": "ERC20InsufficientBalance",
      "type": "error"
    },
    {
      "inputs": [
        {
          "internalType": "address",
          "name": "approver",
          "type": "address"
        }
      ],
      "name": "ERC20InvalidApprover",
      "type": "error"
    },
    {
      "inputs": [
        {
          "internalType": "address",
          "name": "receiver",
          "type": "address"
        }
      ],
      "name": "ERC20InvalidReceiver",
      "type": "error"
    },
    {
      "inputs": [
        {
          "internalType": "address",
          "name": "sender",
          "type": "address"
        }
      ],
      "name": "ERC20InvalidSender",
      "type": "error"
    },
    {
      "inputs": [
        {
          "internalType": "address",
          "name": "spender",
          "type": "address"
        }
      ],
      "name": "ERC20InvalidSpender",
      "type": "error"
    },
    {
      "inputs": [
        {
          "internalType": "address",
          "name": "owner",
          "type": "address"
        }
      ],
      "name": "OwnableInvalidOwner",
      "type": "error"
    },
    {
      "inputs": [
        {
          "internalType": "address",
          "name": "account",
          "type": "address"
        }
      ],
      "name": "OwnableUnauthorizedAccount",
      "type": "error"
    },
    {
      "anonymous": false,
      "inputs": [
        {
          "indexed": true,
          "internalType": "address",
          "name": "addr",
          "type": "address"
        }
      ],
      "name": "AddressBlocked",
      "type": "event"
    },
    {
      "anonymous": false,
      "inputs": [
        {
          "indexed": true,
          "internalType": "address",
          "name": "addr",
          "type": "address"
        }
      ],
      "name": "AddressUnblocked",
      "type": "event"
    },
    {
      "anonymous": false,
      "inputs": [
        {
          "indexed": true,
          "internalType": "address",
          "name": "owner",
          "type": "address"
        },
        {
          "indexed": true,
          "internalType": "address",
          "name": "spender",
          "type": "address"
        },
        {
          "indexed": false,
          "internalType": "uint256",
          "name": "value",
          "type": "uint256"
        }
      ],
      "name": "Approval",
      "type": "event"
    },
    {
      "anonymous": false,
      "inputs": [
        {
          "indexed": true,
          "internalType": "address",
          "name": "operator",
          "type": "address"
        },
        {
          "indexed": true,
          "internalType": "address",
          "name": "tokenHolder",
          "type": "address"
        }
      ],
      "name": "AuthorizedOperator",
      "type": "event"
    },
    {
      "anonymous": false,
      "inputs": [],
      "name": "ControllabilityRevoked",
      "type": "event"
    },
    {
      "anonymous": false,
      "inputs": [
        {
          "indexed": true,
          "internalType": "address",
          "name": "controller",
          "type": "address"
        },
        {
          "indexed": true,
          "internalType": "address",
          "name": "from",
          "type": "address"
        },
        {
          "indexed": true,
          "internalType": "address",
          "name": "to",
          "type": "address"
        },
        {
          "indexed": false,
          "internalType": "uint256",
          "name": "value",
          "type": "uint256"
        }
      ],
      "name": "ControllerTransfer",
      "type": "event"
    },
    {
      "anonymous": false,
      "inputs": [
        {
          "indexed": true,
          "internalType": "bytes32",
          "name": "name",
          "type": "bytes32"
        },
        {
          "indexed": false,
          "internalType": "string",
          "name": "uri",
          "type": "string"
        },
        {
          "indexed": false,
          "internalType": "bytes32",
          "name": "documentHash",
          "type": "bytes32"
        }
      ],
      "name": "DocumentRemoved",
      "type": "event"
    },
    {
      "anonymous": false,
      "inputs": [
        {
          "indexed": true,
          "internalType": "bytes32",
          "name": "name",
          "type": "bytes32"
        },
        {
          "indexed": false,
          "internalType": "string",
          "name": "uri",
          "type": "string"
        },
        {
          "indexed": false,
          "internalType": "bytes32",
          "name": "documentHash",
          "type": "bytes32"
        }
      ],
      "name": "DocumentUpdated",
      "type": "event"
    },
    {
      "anonymous": false,
      "inputs": [],
      "name": "IssuanceLocked",
      "type": "event"
    },
    {
      "anonymous": false,
      "inputs": [
        {
          "indexed": true,
          "internalType": "address",
          "name": "operator",
          "type": "address"
        },
        {
          "indexed": true,
          "internalType": "address",
          "name": "to",
          "type": "address"
        },
        {
          "indexed": false,
          "internalType": "uint256",
          "name": "value",
          "type": "uint256"
        },
        {
          "indexed": false,
          "internalType": "bytes",
          "name": "data",
          "type": "bytes"
        }
      ],
      "name": "Issued",
      "type": "event"
    },
    {
      "anonymous": false,
      "inputs": [
        {
          "indexed": true,
          "internalType": "bytes32",
          "name": "partition",
          "type": "bytes32"
        },
        {
          "indexed": true,
          "internalType": "address",
          "name": "to",
          "type": "address"
        },
        {
          "indexed": false,
          "internalType": "uint256",
          "name": "value",
          "type": "uint256"
        },
        {
          "indexed": false,
          "internalType": "bytes",
          "name": "data",
          "type": "bytes"
        }
      ],
      "name": "IssuedByPartition",
      "type": "event"
    },
    {
      "anonymous": false,
      "inputs": [
        {
          "indexed": true,
          "internalType": "address",
          "name": "previousOwner",
          "type": "address"
        },
        {
          "indexed": true,
          "internalType": "address",
          "name": "newOwner",
          "type": "address"
        }
      ],
      "name": "OwnershipTransferred",
      "type": "event"
    },
    {
      "anonymous": false,
      "inputs": [
        {
          "indexed": true,
          "internalType": "bytes32",
          "name": "fromPartition",
          "type": "bytes32"
        },
        {
          "indexed": true,
          "internalType": "bytes32",
          "name": "toPartition",
          "type": "bytes32"
        },
        {
          "indexed": true,
          "internalType": "address",
          "name": "holder",
          "type": "address"
        },
        {
          "indexed": false,
          "internalType": "uint256",
          "name": "value",
          "type": "uint256"
        }
      ],
      "name": "PartitionMoved",
      "type": "event"
    },
    {
      "anonymous": false,
      "inputs": [
        {
          "indexed": true,
          "internalType": "address",
          "name": "operator",
          "type": "address"
        },
        {
          "indexed": true,
          "internalType": "address",
          "name": "from",
          "type": "address"
        },
        {
          "indexed": false,
          "internalType": "uint256",
          "name": "value",
          "type": "uint256"
        },
        {
          "indexed": false,
          "internalType": "bytes",
          "name": "data",
          "type": "bytes"
        }
      ],
      "name": "Redeemed",
      "type": "event"
    },
    {
      "anonymous": false,
      "inputs": [
        {
          "indexed": true,
          "internalType": "bytes32",
          "name": "partition",
          "type": "bytes32"
        },
        {
          "indexed": true,
          "internalType": "address",
          "name": "from",
          "type": "address"
        },
        {
          "indexed": false,
          "internalType": "uint256",
          "name": "value",
          "type": "uint256"
        },
        {
          "indexed": false,
          "internalType": "bytes",
          "name": "data",
          "type": "bytes"
        }
      ],
      "name": "RedeemedByPartition",
      "type": "event"
    },
    {
      "anonymous": false,
      "inputs": [
        {
          "indexed": true,
          "internalType": "address",
          "name": "operator",
          "type": "address"
        },
        {
          "indexed": true,
          "internalType": "address",
          "name": "tokenHolder",
          "type": "address"
        }
      ],
      "name": "RevokedOperator",
      "type": "event"
    },
    {
      "anonymous": false,
      "inputs": [
        {
          "indexed": true,
          "internalType": "address",
          "name": "from",
          "type": "address"
        },
        {
          "indexed": true,
          "internalType": "address",
          "name": "to",
          "type": "address"
        },
        {
          "indexed": false,
          "internalType": "uint256",
          "name": "value",
          "type": "uint256"
        }
      ],
      "name": "Transfer",
      "type": "event"
    },
    {
      "anonymous": false,
      "inputs": [
        {
          "indexed": true,
          "internalType": "bytes32",
          "name": "fromPartition",
          "type": "bytes32"
        },
        {
          "indexed": true,
          "internalType": "address",
          "name": "from",
          "type": "address"
        },
        {
          "indexed": true,
          "internalType": "address",
          "name": "to",
          "type": "address"
        },
        {
          "indexed": false,
          "internalType": "uint256",
          "name": "value",
          "type": "uint256"
        }
      ],
      "name": "TransferByPartition",
      "type": "event"
    },
    {
      "inputs": [],
      "name": "PARTITION_LOCKED",
      "outputs": [
        {
          "internalType": "bytes32",
          "name": "",
          "type": "bytes32"
        }
      ],
      "stateMutability": "view",
      "type": "function"
    },
    {
      "inputs": [],
      "name": "PARTITION_UNLOCKED",
      "outputs": [
        {
          "internalType": "bytes32",
          "name": "",
          "type": "bytes32"
        }
      ],
      "stateMutability": "view",
      "type": "function"
    },
    {
      "inputs": [
        {
          "internalType": "address",
          "name": "controller",
          "type": "address"
        }
      ],
      "name": "addController",
      "outputs": [],
      "stateMutability": "nonpayable",
      "type": "function"
    },
    {
      "inputs": [
        {
          "internalType": "address",
          "name": "owner",
          "type": "address"
        },
        {
          "internalType": "address",
          "name": "spender",
          "type": "address"
        }
      ],
      "name": "allowance",
      "outputs": [
        {
          "internalType": "uint256",
          "name": "",
          "type": "uint256"
        }
      ],
      "stateMutability": "view",
      "type": "function"
    },
    {
      "inputs": [
        {
          "internalType": "address",
          "name": "spender",
          "type": "address"
        },
        {
          "internalType": "uint256",
          "name": "value",
          "type": "uint256"
        }
      ],
      "name": "approve",
      "outputs": [
        {
          "internalType": "bool",
          "name": "",
          "type": "bool"
        }
      ],
      "stateMutability": "nonpayable",
      "type": "function"
    },
    {
      "inputs": [
        {
          "internalType": "address",
          "name": "account",
          "type": "address"
        }
      ],
      "name": "balanceOf",
      "outputs": [
        {
          "internalType": "uint256",
          "name": "",
          "type": "uint256"
        }
      ],
      "stateMutability": "view",
      "type": "function"
    },
    {
      "inputs": [
        {
          "internalType": "bytes32",
          "name": "partition",
          "type": "bytes32"
        },
        {
          "internalType": "address",
          "name": "tokenHolder",
          "type": "address"
        }
      ],
      "name": "balanceOfByPartition",
      "outputs": [
        {
          "internalType": "uint256",
          "name": "",
          "type": "uint256"
        }
      ],
      "stateMutability": "view",
      "type": "function"
    },
    {
      "inputs": [
        {
          "internalType": "address",
          "name": "addr",
          "type": "address"
        }
      ],
      "name": "blockAddress",
      "outputs": [],
      "stateMutability": "nonpayable",
      "type": "function"
    },
    {
      "inputs": [
        {
          "internalType": "address",
          "name": "",
          "type": "address"
        }
      ],
      "name": "blocked",
      "outputs": [
        {
          "internalType": "bool",
          "name": "",
          "type": "bool"
        }
      ],
      "stateMutability": "view",
      "type": "function"
    },
    {
      "inputs": [
        {
          "internalType": "uint256",
          "name": "value",
          "type": "uint256"
        }
      ],
      "name": "burn",
      "outputs": [],
      "stateMutability": "nonpayable",
      "type": "function"
    },
    {
      "inputs": [
        {
          "internalType": "address",
          "name": "account",
          "type": "address"
        },
        {
          "internalType": "uint256",
          "name": "value",
          "type": "uint256"
        }
      ],
      "name": "burnFrom",
      "outputs": [],
      "stateMutability": "nonpayable",
      "type": "function"
    },
    {
      "inputs": [
        {
          "internalType": "address",
          "name": "to",
          "type": "address"
        },
        {
          "internalType": "uint256",
          "name": "value",
          "type": "uint256"
        },
        {
          "internalType": "bytes",
          "name": "",
          "type": "bytes"
        }
      ],
      "name": "canTransfer",
      "outputs": [
        {
          "internalType": "bytes1",
          "name": "",
          "type": "bytes1"
        },
        {
          "internalType": "bytes32",
          "name": "",
          "type": "bytes32"
        },
        {
          "internalType": "bytes32",
          "name": "",
          "type": "bytes32"
        }
      ],
      "stateMutability": "view",
      "type": "function"
    },
    {
      "inputs": [
        {
          "internalType": "address",
          "name": "from",
          "type": "address"
        },
        {
          "internalType": "address",
          "name": "to",
          "type": "address"
        },
        {
          "internalType": "uint256",
          "name": "value",
          "type": "uint256"
        },
        {
          "internalType": "bytes",
          "name": "",
          "type": "bytes"
        },
        {
          "internalType": "bytes",
          "name": "",
          "type": "bytes"
        }
      ],
      "name": "controllerTransfer",
      "outputs": [],
      "stateMutability": "nonpayable",
      "type": "function"
    },
    {
      "inputs": [
        {
          "internalType": "address",
          "name": "",
          "type": "address"
        }
      ],
      "name": "controllers",
      "outputs": [
        {
          "internalType": "bool",
          "name": "",
          "type": "bool"
        }
      ],
      "stateMutability": "view",
      "type": "function"
    },
    {
      "inputs": [],
      "name": "decimals",
      "outputs": [
        {
          "internalType": "uint8",
          "name": "",
          "type": "uint8"
        }
      ],
      "stateMutability": "view",
      "type": "function"
    },
    {
      "inputs": [],
      "name": "getAllDocuments",
      "outputs": [
        {
          "internalType": "bytes32[]",
          "name": "",
          "type": "bytes32[]"
        }
      ],
      "stateMutability": "view",
      "type": "function"
    },
    {
      "inputs": [
        {
          "internalType": "bytes32",
          "name": "name",
          "type": "bytes32"
        }
      ],
      "name": "getDocument",
      "outputs": [
        {
          "internalType": "string",
          "name": "",
          "type": "string"
        },
        {
          "internalType": "bytes32",
          "name": "",
          "type": "bytes32"
        },
        {
          "internalType": "uint256",
          "name": "",
          "type": "uint256"
        }
      ],
      "stateMutability": "view",
      "type": "function"
    },
    {
      "inputs": [],
      "name": "isControllable",
      "outputs": [
        {
          "internalType": "bool",
          "name": "",
          "type": "bool"
        }
      ],
      "stateMutability": "view",
      "type": "function"
    },
    {
      "inputs": [],
      "name": "isIssuable",
      "outputs": [
        {
          "internalType": "bool",
          "name": "",
          "type": "bool"
        }
      ],
      "stateMutability": "view",
      "type": "function"
    },
    {
      "inputs": [
        {
          "internalType": "address",
          "name": "tokenHolder",
          "type": "address"
        },
        {
          "internalType": "uint256",
          "name": "value",
          "type": "uint256"
        },
        {
          "internalType": "bytes",
          "name": "data",
          "type": "bytes"
        }
      ],
      "name": "issue",
      "outputs": [],
      "stateMutability": "nonpayable",
      "type": "function"
    },
    {
      "inputs": [],
      "name": "lockIssuance",
      "outputs": [],
      "stateMutability": "nonpayable",
      "type": "function"
    },
    {
      "inputs": [
        {
          "internalType": "bytes32",
          "name": "fromPartition",
          "type": "bytes32"
        },
        {
          "internalType": "bytes32",
          "name": "toPartition",
          "type": "bytes32"
        },
        {
          "internalType": "uint256",
          "name": "value",
          "type": "uint256"
        }
      ],
      "name": "movePartition",
      "outputs": [],
      "stateMutability": "nonpayable",
      "type": "function"
    },
    {
      "inputs": [],
      "name": "name",
      "outputs": [
        {
          "internalType": "string",
          "name": "",
          "type": "string"
        }
      ],
      "stateMutability": "view",
      "type": "function"
    },
    {
      "inputs": [],
      "name": "owner",
      "outputs": [
        {
          "internalType": "address",
          "name": "",
          "type": "address"
        }
      ],
      "stateMutability": "view",
      "type": "function"
    },
    {
      "inputs": [
        {
          "internalType": "uint256",
          "name": "value",
          "type": "uint256"
        },
        {
          "internalType": "bytes",
          "name": "data",
          "type": "bytes"
        }
      ],
      "name": "redeem",
      "outputs": [],
      "stateMutability": "nonpayable",
      "type": "function"
    },
    {
      "inputs": [
        {
          "internalType": "bytes32",
          "name": "partition",
          "type": "bytes32"
        },
        {
          "internalType": "uint256",
          "name": "value",
          "type": "uint256"
        },
        {
          "internalType": "bytes",
          "name": "data",
          "type": "bytes"
        }
      ],
      "name": "redeemByPartition",
      "outputs": [],
      "stateMutability": "nonpayable",
      "type": "function"
    },
    {
      "inputs": [
        {
          "internalType": "address",
          "name": "controller",
          "type": "address"
        }
      ],
      "name": "removeController",
      "outputs": [],
      "stateMutability": "nonpayable",
      "type": "function"
    },
    {
      "inputs": [
        {
          "internalType": "bytes32",
          "name": "name",
          "type": "bytes32"
        }
      ],
      "name": "removeDocument",
      "outputs": [],
      "stateMutability": "nonpayable",
      "type": "function"
    },
    {
      "inputs": [],
      "name": "renounceOwnership",
      "outputs": [],
      "stateMutability": "nonpayable",
      "type": "function"
    },
    {
      "inputs": [],
      "name": "revokeControllability",
      "outputs": [],
      "stateMutability": "nonpayable",
      "type": "function"
    },
    {
      "inputs": [
        {
          "internalType": "bytes32",
          "name": "name",
          "type": "bytes32"
        },
        {
          "internalType": "string",
          "name": "uri",
          "type": "string"
        },
        {
          "internalType": "bytes32",
          "name": "documentHash",
          "type": "bytes32"
        }
      ],
      "name": "setDocument",
      "outputs": [],
      "stateMutability": "nonpayable",
      "type": "function"
    },
    {
      "inputs": [],
      "name": "symbol",
      "outputs": [
        {
          "internalType": "string",
          "name": "",
          "type": "string"
        }
      ],
      "stateMutability": "view",
      "type": "function"
    },
    {
      "inputs": [],
      "name": "totalSupply",
      "outputs": [
        {
          "internalType": "uint256",
          "name": "",
          "type": "uint256"
        }
      ],
      "stateMutability": "view",
      "type": "function"
    },
    {
      "inputs": [
        {
          "internalType": "address",
          "name": "to",
          "type": "address"
        },
        {
          "internalType": "uint256",
          "name": "amount",
          "type": "uint256"
        }
      ],
      "name": "transfer",
      "outputs": [
        {
          "internalType": "bool",
          "name": "",
          "type": "bool"
        }
      ],
      "stateMutability": "nonpayable",
      "type": "function"
    },
    {
      "inputs": [
        {
          "internalType": "bytes32",
          "name": "fromPartition",
          "type": "bytes32"
        },
        {
          "internalType": "address",
          "name": "to",
          "type": "address"
        },
        {
          "internalType": "uint256",
          "name": "value",
          "type": "uint256"
        },
        {
          "internalType": "bytes",
          "name": "data",
          "type": "bytes"
        }
      ],
      "name": "transferByPartition",
      "outputs": [
        {
          "internalType": "bytes32",
          "name": "",
          "type": "bytes32"
        }
      ],
      "stateMutability": "nonpayable",
      "type": "function"
    },
    {
      "inputs": [
        {
          "internalType": "address",
          "name": "from",
          "type": "address"
        },
        {
          "internalType": "address",
          "name": "to",
          "type": "address"
        },
        {
          "internalType": "uint256",
          "name": "amount",
          "type": "uint256"
        }
      ],
      "name": "transferFrom",
      "outputs": [
        {
          "internalType": "bool",
          "name": "",
          "type": "bool"
        }
      ],
      "stateMutability": "nonpayable",
      "type": "function"
    },
    {
      "inputs": [
        {
          "internalType": "address",
          "name": "newOwner",
          "type": "address"
        }
      ],
      "name": "transferOwnership",
      "outputs": [],
      "stateMutability": "nonpayable",
      "type": "function"
    },
    {
      "inputs": [
        {
          "internalType": "address",
          "name": "to",
          "type": "address"
        },
        {
          "internalType": "uint256",
          "name": "value",
          "type": "uint256"
        },
        {
          "internalType": "bytes",
          "name": "",
          "type": "bytes"
        }
      ],
      "name": "transferWithData",
      "outputs": [],
      "stateMutability": "nonpayable",
      "type": "function"
    },
    {
      "inputs": [
        {
          "internalType": "address",
          "name": "addr",
          "type": "address"
        }
      ],
      "name": "unblockAddress",
      "outputs": [],
      "stateMutability": "nonpayable",
      "type": "function"
    }
  ],
  "bytecode": "0x60806040526001600560146101000a81548160ff0219169083151502179055506001600560156101000a81548160ff02191690831515021790555034801561004657600080fd5b50336040518060400160405280600881526020017f3530332d53414c540000000000000000000000000000000000000000000000008152506040518060400160405280600481526020017f53414c540000000000000000000000000000000000000000000000000000000081525081600390816100c39190610ac6565b5080600490816100d39190610ac6565b505050600073ffffffffffffffffffffffffffffffffffffffff168173ffffffffffffffffffffffffffffffffffffffff16036101485760006040517f1e4fbdf700000000000000000000000000000000000000000000000000000000815260040161013f9190610bd9565b60405180910390fd5b610157816101a960201b60201c565b50600064019572191090506101a37f314f33d36812fa77f857277e466e3b8ef8b3d560f8c84129b04c3be6509fd24e33836040518060200160405280600081525061026f60201b60201c565b50610e4f565b6000600560009054906101000a900473ffffffffffffffffffffffffffffffffffffffff16905081600560006101000a81548173ffffffffffffffffffffffffffffffffffffffff021916908373ffffffffffffffffffffffffffffffffffffffff1602179055508173ffffffffffffffffffffffffffffffffffffffff168173ffffffffffffffffffffffffffffffffffffffff167f8be0079c531659141344cd1fd0a4f28419497f9722a3daafe3b4186f6b6457e060405160405180910390a35050565b6001600960006101000a81548160ff02191690831515021790555061029a838361037360201b60201c565b6000600960006101000a81548160ff02191690831515021790555081600860008573ffffffffffffffffffffffffffffffffffffffff1673ffffffffffffffffffffffffffffffffffffffff168152602001908152602001600020600086815260200190815260200160002060008282546103159190610c23565b925050819055508273ffffffffffffffffffffffffffffffffffffffff16847f6032e2468b0f94dfa63c61d6c8a84842a99c049263eae408a52b945020b6578d8484604051610365929190610cf6565b60405180910390a350505050565b600073ffffffffffffffffffffffffffffffffffffffff168273ffffffffffffffffffffffffffffffffffffffff16036103e55760006040517fec442f050000000000000000000000000000000000000000000000000000000081526004016103dc9190610bd9565b60405180910390fd5b6103f7600083836103fb60201b60201c565b5050565b600960009054906101000a900460ff1661063b57600073ffffffffffffffffffffffffffffffffffffffff168373ffffffffffffffffffffffffffffffffffffffff161461057e5780600860008573ffffffffffffffffffffffffffffffffffffffff1673ffffffffffffffffffffffffffffffffffffffff16815260200190815260200160002060007f314f33d36812fa77f857277e466e3b8ef8b3d560f8c84129b04c3be6509fd24e81526020019081526020016000205410156104f6576040517f08c379a00000000000000000000000000000000000000000000000000000000081526004016104ed90610da9565b60405180910390fd5b80600860008573ffffffffffffffffffffffffffffffffffffffff1673ffffffffffffffffffffffffffffffffffffffff16815260200190815260200160002060007f314f33d36812fa77f857277e466e3b8ef8b3d560f8c84129b04c3be6509fd24e815260200190815260200160002060008282546105769190610dc9565b925050819055505b600073ffffffffffffffffffffffffffffffffffffffff168273ffffffffffffffffffffffffffffffffffffffff161461063a5780600860008473ffffffffffffffffffffffffffffffffffffffff1673ffffffffffffffffffffffffffffffffffffffff16815260200190815260200160002060007f314f33d36812fa77f857277e466e3b8ef8b3d560f8c84129b04c3be6509fd24e815260200190815260200160002060008282546106329190610c23565b925050819055505b5b61064c83838361065160201b60201c565b505050565b600073ffffffffffffffffffffffffffffffffffffffff168373ffffffffffffffffffffffffffffffffffffffff16036106a35780600260008282546106979190610c23565b92505081905550610776565b60008060008573ffffffffffffffffffffffffffffffffffffffff1673ffffffffffffffffffffffffffffffffffffffff1681526020019081526020016000205490508181101561072f578381836040517fe450d38c00000000000000000000000000000000000000000000000000000000815260040161072693929190610dfd565b60405180910390fd5b8181036000808673ffffffffffffffffffffffffffffffffffffffff1673ffffffffffffffffffffffffffffffffffffffff16815260200190815260200160002081905550505b600073ffffffffffffffffffffffffffffffffffffffff168273ffffffffffffffffffffffffffffffffffffffff16036107bf578060026000828254039250508190555061080c565b806000808473ffffffffffffffffffffffffffffffffffffffff1673ffffffffffffffffffffffffffffffffffffffff168152602001908152602001600020600082825401925050819055505b8173ffffffffffffffffffffffffffffffffffffffff168373ffffffffffffffffffffffffffffffffffffffff167fddf252ad1be2c89b69c2b068fc378daa952ba7f163c4a11628f55a4df523b3ef836040516108699190610e34565b60405180910390a3505050565b600081519050919050565b7f4e487b7100000000000000000000000000000000000000000000000000000000600052604160045260246000fd5b7f4e487b7100000000000000000000000000000000000000000000000000000000600052602260045260246000fd5b600060028204905060018216806108f757607f821691505b60208210810361090a576109096108b0565b5b50919050565b60008190508160005260206000209050919050565b60006020601f8301049050919050565b600082821b905092915050565b6000600883026109727fffffffffffffffffffffffffffffffffffffffffffffffffffffffffffffffff82610935565b61097c8683610935565b95508019841693508086168417925050509392505050565b6000819050919050565b6000819050919050565b60006109c36109be6109b984610994565b61099e565b610994565b9050919050565b6000819050919050565b6109dd836109a8565b6109f16109e9826109ca565b848454610942565b825550505050565b600090565b610a066109f9565b610a118184846109d4565b505050565b5b81811015610a3557610a2a6000826109fe565b600181019050610a17565b5050565b601f821115610a7a57610a4b81610910565b610a5484610925565b81016020851015610a63578190505b610a77610a6f85610925565b830182610a16565b50505b505050565b600082821c905092915050565b6000610a9d60001984600802610a7f565b1980831691505092915050565b6000610ab68383610a8c565b9150826002028217905092915050565b610acf82610876565b67ffffffffffffffff811115610ae857610ae7610881565b5b610af282546108df565b610afd828285610a39565b600060209050601f831160018114610b305760008415610b1e578287015190505b610b288582610aaa565b865550610b90565b601f198416610b3e86610910565b60005b82811015610b6657848901518255600182019150602085019450602081019050610b41565b86831015610b835784890151610b7f601f891682610a8c565b8355505b6001600288020188555050505b505050505050565b600073ffffffffffffffffffffffffffffffffffffffff82169050919050565b6000610bc382610b98565b9050919050565b610bd381610bb8565b82525050565b6000602082019050610bee6000830184610bca565b92915050565b7f4e487b7100000000000000000000000000000000000000000000000000000000600052601160045260246000fd5b6000610c2e82610994565b9150610c3983610994565b9250828201905080821115610c5157610c50610bf4565b5b92915050565b610c6081610994565b82525050565b600081519050919050565b600082825260208201905092915050565b60005b83811015610ca0578082015181840152602081019050610c85565b60008484015250505050565b6000601f19601f8301169050919050565b6000610cc882610c66565b610cd28185610c71565b9350610ce2818560208601610c82565b610ceb81610cac565b840191505092915050565b6000604082019050610d0b6000830185610c57565b8181036020830152610d1d8184610cbd565b90509392505050565b600082825260208201905092915050565b7f53414c543a20696e73756666696369656e7420756e6c6f636b65642062616c6160008201527f6e63650000000000000000000000000000000000000000000000000000000000602082015250565b6000610d93602383610d26565b9150610d9e82610d37565b604082019050919050565b60006020820190508181036000830152610dc281610d86565b9050919050565b6000610dd482610994565b9150610ddf83610994565b9250828203905081811115610df757610df6610bf4565b5b92915050565b6000606082019050610e126000830186610bca565b610e1f6020830185610c57565b610e2c6040830184610c57565b949350505050565b6000602082019050610e496000830184610c57565b92915050565b61444780610e5e6000396000f3fe608060405234801561001057600080fd5b506004361061023d5760003560e01c806379cc67901161013b578063bb3acde9116100b8578063e77c646d1161007c578063e77c646d146106a4578063f282527a146106c0578063f2fde38b146106dc578063f3d490db146106f8578063f6a74ed7146107285761023d565b8063bb3acde9146105dc578063c3501848146105f8578063da8c229e14610614578063dd62ed3e14610644578063e5962195146106745761023d565b8063a2ccd608116100ff578063a2ccd60814610524578063a7fc7a0714610542578063a9059cbb1461055e578063ad2bb1b31461058e578063b10d6b41146105aa5761023d565b806379cc6790146104905780638da5cb5b146104ac57806395b657f5146104ca57806395d89b41146104e85780639fa5f50b146105065761023d565b80632f1cae85116101c957806350042d3a1161018d57806350042d3a1461041457806362eb00681461043057806369716be71461044c57806370a0823114610456578063715018a6146104865761023d565b80632f1cae851461036e57806330e828031461038c578063313ce567146103bc57806342966c68146103da5780634c783bf5146103f65761023d565b8063186d9d8811610210578063186d9d88146102ca5780631badb25c146102e6578063234b8d0e1461031857806323b872dd146103225780632535f762146103525761023d565b8063010648ca1461024257806306fdde031461025e578063095ea7b31461027c57806318160ddd146102ac575b600080fd5b61025c600480360381019061025791906131a6565b610744565b005b610266610875565b60405161027391906132aa565b60405180910390f35b61029660048036038101906102919190613360565b610907565b6040516102a391906133bb565b60405180910390f35b6102b461092a565b6040516102c191906133e5565b60405180910390f35b6102e460048036038101906102df9190613400565b610934565b005b61030060048036038101906102fb9190613483565b610a9b565b60405161030f93929190613541565b60405180910390f35b610320610cbf565b005b61033c60048036038101906103379190613578565b610d10565b60405161034991906133bb565b60405180910390f35b61036c60048036038101906103679190613483565b610e44565b005b610376610f73565b60405161038391906133bb565b60405180910390f35b6103a660048036038101906103a191906135cb565b610f86565b6040516103b391906133e5565b60405180910390f35b6103c4610fe1565b6040516103d19190613627565b60405180910390f35b6103f460048036038101906103ef9190613642565b610fe6565b005b6103fe610ffa565b60405161040b91906133bb565b60405180910390f35b61042e6004803603810190610429919061366f565b61100d565b005b61044a600480360381019061044591906136c2565b6111c3565b005b6104546113bf565b005b610470600480360381019061046b9190613400565b611410565b60405161047d91906133e5565b60405180910390f35b61048e611458565b005b6104aa60048036038101906104a59190613360565b61146c565b005b6104b461148c565b6040516104c19190613745565b60405180910390f35b6104d26114b6565b6040516104df9190613760565b60405180910390f35b6104f06114da565b6040516104fd91906132aa565b60405180910390f35b61050e61156c565b60405161051b9190613839565b60405180910390f35b61052c6115c4565b6040516105399190613760565b60405180910390f35b61055c60048036038101906105579190613400565b6115e8565b005b61057860048036038101906105739190613360565b6116a6565b60405161058591906133bb565b60405180910390f35b6105a860048036038101906105a39190613400565b6117d8565b005b6105c460048036038101906105bf919061385b565b61193f565b6040516105d393929190613888565b60405180910390f35b6105f660048036038101906105f19190613483565b611a29565b005b610612600480360381019061060d919061385b565b611b5f565b005b61062e60048036038101906106299190613400565b611db5565b60405161063b91906133bb565b60405180910390f35b61065e600480360381019061065991906138c6565b611dd5565b60405161066b91906133e5565b60405180910390f35b61068e60048036038101906106899190613400565b611e5c565b60405161069b91906133bb565b60405180910390f35b6106be60048036038101906106b99190613906565b611e7c565b005b6106da60048036038101906106d59190613966565b611ef4565b005b6106f660048036038101906106f19190613400565b61209c565b005b610712600480360381019061070d9190613a22565b612122565b60405161071f9190613760565b60405180910390f35b610742600480360381019061073d9190613400565b612456565b005b61074c612514565b6000600a6000868152602001908152602001600020600201540361079457600b8490806001815401808255809150506001900390600052602060002001600090919091909150555b604051806060016040528084848080601f016020809104026020016040519081016040528093929190818152602001838380828437600081840152601f19601f82011690508083019250505050505050815260200182815260200142815250600a6000868152602001908152602001600020600082015181600001908161081b9190613ce5565b506020820151816001015560408201518160020155905050837fb4c22d60cd550a815744f04e3ff5278bf19684565ee00e2b084041b6024bd6f684848460405161086793929190613df3565b60405180910390a250505050565b60606003805461088490613b08565b80601f01602080910402602001604051908101604052809291908181526020018280546108b090613b08565b80156108fd5780601f106108d2576101008083540402835291602001916108fd565b820191906000526020600020905b8154815290600101906020018083116108e057829003601f168201915b5050505050905090565b60008061091261259b565b905061091f8185856125a3565b600191505092915050565b6000600254905090565b600660003373ffffffffffffffffffffffffffffffffffffffff1673ffffffffffffffffffffffffffffffffffffffff16815260200190815260200160002060009054906101000a900460ff16806109be575061098f61148c565b73ffffffffffffffffffffffffffffffffffffffff163373ffffffffffffffffffffffffffffffffffffffff16145b6109fd576040517f08c379a00000000000000000000000000000000000000000000000000000000081526004016109f490613e71565b60405180910390fd5b6000600760008373ffffffffffffffffffffffffffffffffffffffff1673ffffffffffffffffffffffffffffffffffffffff16815260200190815260200160002060006101000a81548160ff0219169083151502179055508073ffffffffffffffffffffffffffffffffffffffff167f385b21b54e2348e690dec29e9741026142b02eaabfcc2fcb676cebcb7cd1653460405160405180910390a250565b6000806000600760003373ffffffffffffffffffffffffffffffffffffffff1673ffffffffffffffffffffffffffffffffffffffff16815260200190815260200160002060009054906101000a900460ff1615610b2a5760507f53656e64657220626c6f636b65640000000000000000000000000000000000006000801b8260f81b9250925092509250610cb5565b600760008873ffffffffffffffffffffffffffffffffffffffff1673ffffffffffffffffffffffffffffffffffffffff16815260200190815260200160002060009054906101000a900460ff1615610bb45760507f526563697069656e7420626c6f636b65640000000000000000000000000000006000801b8260f81b9250925092509250610cb5565b85600860003373ffffffffffffffffffffffffffffffffffffffff1673ffffffffffffffffffffffffffffffffffffffff16815260200190815260200160002060007f314f33d36812fa77f857277e466e3b8ef8b3d560f8c84129b04c3be6509fd24e8152602001908152602001600020541015610c645760507f496e73756666696369656e7420756e6c6f636b65642062616c616e63650000006000801b8260f81b9250925092509250610cb5565b60517f5472616e73666572204f4b0000000000000000000000000000000000000000007f314f33d36812fa77f857277e466e3b8ef8b3d560f8c84129b04c3be6509fd24e8260f81b92509250925092505b9450945094915050565b610cc7612514565b6000600560146101000a81548160ff0219169083151502179055507f824810ec283a151ecc57e0d98e78df4d6c3cd868b46b27ee0b5cb37c4d92017360405160405180910390a1565b60008383600760008373ffffffffffffffffffffffffffffffffffffffff1673ffffffffffffffffffffffffffffffffffffffff16815260200190815260200160002060009054906101000a900460ff1615610da1576040517f08c379a0000000000000000000000000000000000000000000000000000000008152600401610d9890613edd565b60405180910390fd5b600760008273ffffffffffffffffffffffffffffffffffffffff1673ffffffffffffffffffffffffffffffffffffffff16815260200190815260200160002060009054906101000a900460ff1615610e2e576040517f08c379a0000000000000000000000000000000000000000000000000000000008152600401610e2590613f49565b60405180910390fd5b610e398686866125b5565b925050509392505050565b3384600760008373ffffffffffffffffffffffffffffffffffffffff1673ffffffffffffffffffffffffffffffffffffffff16815260200190815260200160002060009054906101000a900460ff1615610ed3576040517f08c379a0000000000000000000000000000000000000000000000000000000008152600401610eca90613edd565b60405180910390fd5b600760008273ffffffffffffffffffffffffffffffffffffffff1673ffffffffffffffffffffffffffffffffffffffff16815260200190815260200160002060009054906101000a900460ff1615610f60576040517f08c379a0000000000000000000000000000000000000000000000000000000008152600401610f5790613f49565b60405180910390fd5b610f6b3387876125e4565b505050505050565b600560149054906101000a900460ff1681565b6000600860008373ffffffffffffffffffffffffffffffffffffffff1673ffffffffffffffffffffffffffffffffffffffff168152602001908152602001600020600084815260200190815260200160002054905092915050565b600090565b610ff7610ff161259b565b826126d8565b50565b600560159054906101000a900460ff1681565b80600860003373ffffffffffffffffffffffffffffffffffffffff1673ffffffffffffffffffffffffffffffffffffffff16815260200190815260200160002060008581526020019081526020016000205410156110a0576040517f08c379a000000000000000000000000000000000000000000000000000000000815260040161109790613fdb565b60405180910390fd5b80600860003373ffffffffffffffffffffffffffffffffffffffff1673ffffffffffffffffffffffffffffffffffffffff16815260200190815260200160002060008581526020019081526020016000206000828254611100919061402a565b9250508190555080600860003373ffffffffffffffffffffffffffffffffffffffff1673ffffffffffffffffffffffffffffffffffffffff16815260200190815260200160002060008481526020019081526020016000206000828254611167919061405e565b925050819055503373ffffffffffffffffffffffffffffffffffffffff1682847f7f8e9db200d501992d4633298365ca9596d31ae7f5aa3bb4c8908e3dde444f87846040516111b691906133e5565b60405180910390a4505050565b82600860003373ffffffffffffffffffffffffffffffffffffffff1673ffffffffffffffffffffffffffffffffffffffff1681526020019081526020016000206000868152602001908152602001600020541015611256576040517f08c379a000000000000000000000000000000000000000000000000000000000815260040161124d90613fdb565b60405180910390fd5b6001600960006101000a81548160ff02191690831515021790555061127b33846126d8565b6000600960006101000a81548160ff02191690831515021790555082600860003373ffffffffffffffffffffffffffffffffffffffff1673ffffffffffffffffffffffffffffffffffffffff168152602001908152602001600020600086815260200190815260200160002060008282546112f6919061402a565b925050819055503373ffffffffffffffffffffffffffffffffffffffff16847fc736c60bc8a4ad875a1bbafefffc9506b6075aa93a08cc74bf4bea84daca371a858585604051611348939291906140d0565b60405180910390a33373ffffffffffffffffffffffffffffffffffffffff163373ffffffffffffffffffffffffffffffffffffffff167fb7d0d6b60740753e9f16692a2f479472a1385aec2420fa43225b02f2ffa1afe78585856040516113b1939291906140d0565b60405180910390a350505050565b6113c7612514565b6000600560156101000a81548160ff0219169083151502179055507f564f87f7c0005218d52e0d155c104ed00e64a725ae9396663f87336e6232938860405160405180910390a1565b60008060008373ffffffffffffffffffffffffffffffffffffffff1673ffffffffffffffffffffffffffffffffffffffff168152602001908152602001600020549050919050565b611460612514565b61146a600061275a565b565b61147e8261147861259b565b83612820565b61148882826126d8565b5050565b6000600560009054906101000a900473ffffffffffffffffffffffffffffffffffffffff16905090565b7f314f33d36812fa77f857277e466e3b8ef8b3d560f8c84129b04c3be6509fd24e81565b6060600480546114e990613b08565b80601f016020809104026020016040519081016040528092919081815260200182805461151590613b08565b80156115625780601f1061153757610100808354040283529160200191611562565b820191906000526020600020905b81548152906001019060200180831161154557829003601f168201915b5050505050905090565b6060600b8054806020026020016040519081016040528092919081815260200182805480156115ba57602002820191906000526020600020905b8154815260200190600101908083116115a6575b5050505050905090565b7feb4a01a12a4bbfa1bc780c16c5b2b6720cdf4f3c29cabd8c0f76fec3a575096b81565b6115f0612514565b6001600660008373ffffffffffffffffffffffffffffffffffffffff1673ffffffffffffffffffffffffffffffffffffffff16815260200190815260200160002060006101000a81548160ff021916908315150217905550600073ffffffffffffffffffffffffffffffffffffffff168173ffffffffffffffffffffffffffffffffffffffff167ff4caeb2d6ca8932a215a353d0703c326ec2d81fc68170f320eb2ab49e9df61f960405160405180910390a350565b60003383600760008373ffffffffffffffffffffffffffffffffffffffff1673ffffffffffffffffffffffffffffffffffffffff16815260200190815260200160002060009054906101000a900460ff1615611737576040517f08c379a000000000000000000000000000000000000000000000000000000000815260040161172e90613edd565b60405180910390fd5b600760008273ffffffffffffffffffffffffffffffffffffffff1673ffffffffffffffffffffffffffffffffffffffff16815260200190815260200160002060009054906101000a900460ff16156117c4576040517f08c379a00000000000000000000000000000000000000000000000000000000081526004016117bb90613f49565b60405180910390fd5b6117ce85856128b5565b9250505092915050565b600660003373ffffffffffffffffffffffffffffffffffffffff1673ffffffffffffffffffffffffffffffffffffffff16815260200190815260200160002060009054906101000a900460ff1680611862575061183361148c565b73ffffffffffffffffffffffffffffffffffffffff163373ffffffffffffffffffffffffffffffffffffffff16145b6118a1576040517f08c379a000000000000000000000000000000000000000000000000000000000815260040161189890613e71565b60405180910390fd5b6001600760008373ffffffffffffffffffffffffffffffffffffffff1673ffffffffffffffffffffffffffffffffffffffff16815260200190815260200160002060006101000a81548160ff0219169083151502179055508073ffffffffffffffffffffffffffffffffffffffff167f71fa9c99da9552de60a9ccf693f5a91456cbb8c205c8e532b1f55339903543cf60405160405180910390a250565b60606000806000600a600086815260200190815260200160002060405180606001604052908160008201805461197490613b08565b80601f01602080910402602001604051908101604052809291908181526020018280546119a090613b08565b80156119ed5780601f106119c2576101008083540402835291602001916119ed565b820191906000526020600020905b8154815290600101906020018083116119d057829003601f168201915b50505050508152602001600182015481526020016002820154815250509050806000015181602001518260400151935093509350509193909250565b611a31612514565b600560149054906101000a900460ff16611a80576040517f08c379a0000000000000000000000000000000000000000000000000000000008152600401611a779061414e565b60405180910390fd5b611af07f314f33d36812fa77f857277e466e3b8ef8b3d560f8c84129b04c3be6509fd24e858585858080601f016020809104026020016040519081016040528093929190818152602001838380828437600081840152601f19601f820116905080830192505050505050506128d8565b8373ffffffffffffffffffffffffffffffffffffffff163373ffffffffffffffffffffffffffffffffffffffff167f0e9905d62635f049c2f4e11678ebf9dc3d1f8c4a653e290759b772e47ba00d00858585604051611b51939291906140d0565b60405180910390a350505050565b611b67612514565b6000600a6000838152602001908152602001600020604051806060016040529081600082018054611b9790613b08565b80601f0160208091040260200160405190810160405280929190818152602001828054611bc390613b08565b8015611c105780601f10611be557610100808354040283529160200191611c10565b820191906000526020600020905b815481529060010190602001808311611bf357829003601f168201915b505050505081526020016001820154815260200160028201548152505090506000816040015103611c76576040517f08c379a0000000000000000000000000000000000000000000000000000000008152600401611c6d906141ba565b60405180910390fd5b6000600b80549050905060005b81811015611d375783600b8281548110611ca057611c9f6141da565b5b906000526020600020015403611d2a57600b600183611cbf919061402a565b81548110611cd057611ccf6141da565b5b9060005260206000200154600b8281548110611cef57611cee6141da565b5b9060005260206000200181905550600b805480611d0f57611d0e614209565b5b60019003818190600052602060002001600090559055611d37565b8080600101915050611c83565b50827f3d9bba27d3e360d8c80645beed7e991454a8271bf6f269a24f7782be0f0d065483600001518460200151604051611d72929190614238565b60405180910390a2600a600084815260200190815260200160002060008082016000611d9e91906130a4565b600182016000905560028201600090555050505050565b60066020528060005260406000206000915054906101000a900460ff1681565b6000600160008473ffffffffffffffffffffffffffffffffffffffff1673ffffffffffffffffffffffffffffffffffffffff16815260200190815260200160002060008373ffffffffffffffffffffffffffffffffffffffff1673ffffffffffffffffffffffffffffffffffffffff16815260200190815260200160002054905092915050565b60076020528060005260406000206000915054906101000a900460ff1681565b611e8633846126d8565b3373ffffffffffffffffffffffffffffffffffffffff163373ffffffffffffffffffffffffffffffffffffffff167fb7d0d6b60740753e9f16692a2f479472a1385aec2420fa43225b02f2ffa1afe7858585604051611ee7939291906140d0565b60405180910390a3505050565b600660003373ffffffffffffffffffffffffffffffffffffffff1673ffffffffffffffffffffffffffffffffffffffff16815260200190815260200160002060009054906101000a900460ff1680611f7e5750611f4f61148c565b73ffffffffffffffffffffffffffffffffffffffff163373ffffffffffffffffffffffffffffffffffffffff16145b611fbd576040517f08c379a0000000000000000000000000000000000000000000000000000000008152600401611fb490613e71565b60405180910390fd5b600560159054906101000a900460ff1661200c576040517f08c379a0000000000000000000000000000000000000000000000000000000008152600401612003906142b4565b60405180910390fd5b6120178787876125e4565b8573ffffffffffffffffffffffffffffffffffffffff168773ffffffffffffffffffffffffffffffffffffffff163373ffffffffffffffffffffffffffffffffffffffff167f1594b99241b807e4dae1336624d71beff3bfbe2ea312c22677f38cdbfcbbd92c8860405161208b91906133e5565b60405180910390a450505050505050565b6120a4612514565b600073ffffffffffffffffffffffffffffffffffffffff168173ffffffffffffffffffffffffffffffffffffffff16036121165760006040517f1e4fbdf700000000000000000000000000000000000000000000000000000000815260040161210d9190613745565b60405180910390fd5b61211f8161275a565b50565b60003385600760008373ffffffffffffffffffffffffffffffffffffffff1673ffffffffffffffffffffffffffffffffffffffff16815260200190815260200160002060009054906101000a900460ff16156121b3576040517f08c379a00000000000000000000000000000000000000000000000000000000081526004016121aa90613edd565b60405180910390fd5b600760008273ffffffffffffffffffffffffffffffffffffffff1673ffffffffffffffffffffffffffffffffffffffff16815260200190815260200160002060009054906101000a900460ff1615612240576040517f08c379a000000000000000000000000000000000000000000000000000000000815260040161223790613f49565b60405180910390fd5b85600860003373ffffffffffffffffffffffffffffffffffffffff1673ffffffffffffffffffffffffffffffffffffffff16815260200190815260200160002060008a81526020019081526020016000205410156122d3576040517f08c379a00000000000000000000000000000000000000000000000000000000081526004016122ca90613fdb565b60405180910390fd5b6001600960006101000a81548160ff0219169083151502179055506122f93388886125e4565b6000600960006101000a81548160ff02191690831515021790555085600860003373ffffffffffffffffffffffffffffffffffffffff1673ffffffffffffffffffffffffffffffffffffffff16815260200190815260200160002060008a81526020019081526020016000206000828254612374919061402a565b9250508190555085600860008973ffffffffffffffffffffffffffffffffffffffff1673ffffffffffffffffffffffffffffffffffffffff16815260200190815260200160002060008a815260200190815260200160002060008282546123db919061405e565b925050819055508673ffffffffffffffffffffffffffffffffffffffff163373ffffffffffffffffffffffffffffffffffffffff16897f0f527c5f31fde91835354ad82e863e96d8637df7a0254bfb42879978fc047e568960405161244091906133e5565b60405180910390a4879250505095945050505050565b61245e612514565b6000600660008373ffffffffffffffffffffffffffffffffffffffff1673ffffffffffffffffffffffffffffffffffffffff16815260200190815260200160002060006101000a81548160ff021916908315150217905550600073ffffffffffffffffffffffffffffffffffffffff168173ffffffffffffffffffffffffffffffffffffffff167f50546e66e5f44d728365dc3908c63bc5cfeeab470722c1677e3073a6ac294aa160405160405180910390a350565b61251c61259b565b73ffffffffffffffffffffffffffffffffffffffff1661253a61148c565b73ffffffffffffffffffffffffffffffffffffffff16146125995761255d61259b565b6040517f118cdaa70000000000000000000000000000000000000000000000000000000081526004016125909190613745565b60405180910390fd5b565b600033905090565b6125b083838360016129d6565b505050565b6000806125c061259b565b90506125cd858285612820565b6125d88585856125e4565b60019150509392505050565b600073ffffffffffffffffffffffffffffffffffffffff168373ffffffffffffffffffffffffffffffffffffffff16036126565760006040517f96c6fd1e00000000000000000000000000000000000000000000000000000000815260040161264d9190613745565b60405180910390fd5b600073ffffffffffffffffffffffffffffffffffffffff168273ffffffffffffffffffffffffffffffffffffffff16036126c85760006040517fec442f050000000000000000000000000000000000000000000000000000000081526004016126bf9190613745565b60405180910390fd5b6126d3838383612bad565b505050565b600073ffffffffffffffffffffffffffffffffffffffff168273ffffffffffffffffffffffffffffffffffffffff160361274a5760006040517f96c6fd1e0000000000000000000000000000000000000000000000000000000081526004016127419190613745565b60405180910390fd5b61275682600083612bad565b5050565b6000600560009054906101000a900473ffffffffffffffffffffffffffffffffffffffff16905081600560006101000a81548173ffffffffffffffffffffffffffffffffffffffff021916908373ffffffffffffffffffffffffffffffffffffffff1602179055508173ffffffffffffffffffffffffffffffffffffffff168173ffffffffffffffffffffffffffffffffffffffff167f8be0079c531659141344cd1fd0a4f28419497f9722a3daafe3b4186f6b6457e060405160405180910390a35050565b600061282c8484611dd5565b90507fffffffffffffffffffffffffffffffffffffffffffffffffffffffffffffffff8110156128af578181101561289f578281836040517ffb8f41b2000000000000000000000000000000000000000000000000000000008152600401612896939291906142d4565b60405180910390fd5b6128ae848484840360006129d6565b5b50505050565b6000806128c061259b565b90506128cd8185856125e4565b600191505092915050565b6001600960006101000a81548160ff0219169083151502179055506128fd8383612dfd565b6000600960006101000a81548160ff02191690831515021790555081600860008573ffffffffffffffffffffffffffffffffffffffff1673ffffffffffffffffffffffffffffffffffffffff16815260200190815260200160002060008681526020019081526020016000206000828254612978919061405e565b925050819055508273ffffffffffffffffffffffffffffffffffffffff16847f6032e2468b0f94dfa63c61d6c8a84842a99c049263eae408a52b945020b6578d84846040516129c892919061434f565b60405180910390a350505050565b600073ffffffffffffffffffffffffffffffffffffffff168473ffffffffffffffffffffffffffffffffffffffff1603612a485760006040517fe602df05000000000000000000000000000000000000000000000000000000008152600401612a3f9190613745565b60405180910390fd5b600073ffffffffffffffffffffffffffffffffffffffff168373ffffffffffffffffffffffffffffffffffffffff1603612aba5760006040517f94280d62000000000000000000000000000000000000000000000000000000008152600401612ab19190613745565b60405180910390fd5b81600160008673ffffffffffffffffffffffffffffffffffffffff1673ffffffffffffffffffffffffffffffffffffffff16815260200190815260200160002060008573ffffffffffffffffffffffffffffffffffffffff1673ffffffffffffffffffffffffffffffffffffffff168152602001908152602001600020819055508015612ba7578273ffffffffffffffffffffffffffffffffffffffff168473ffffffffffffffffffffffffffffffffffffffff167f8c5be1e5ebec7d5bd14f71427d1e84f3dd0314c0f7b2291e5b200ac8c7c3b92584604051612b9e91906133e5565b60405180910390a35b50505050565b600960009054906101000a900460ff16612ded57600073ffffffffffffffffffffffffffffffffffffffff168373ffffffffffffffffffffffffffffffffffffffff1614612d305780600860008573ffffffffffffffffffffffffffffffffffffffff1673ffffffffffffffffffffffffffffffffffffffff16815260200190815260200160002060007f314f33d36812fa77f857277e466e3b8ef8b3d560f8c84129b04c3be6509fd24e8152602001908152602001600020541015612ca8576040517f08c379a0000000000000000000000000000000000000000000000000000000008152600401612c9f906143f1565b60405180910390fd5b80600860008573ffffffffffffffffffffffffffffffffffffffff1673ffffffffffffffffffffffffffffffffffffffff16815260200190815260200160002060007f314f33d36812fa77f857277e466e3b8ef8b3d560f8c84129b04c3be6509fd24e81526020019081526020016000206000828254612d28919061402a565b925050819055505b600073ffffffffffffffffffffffffffffffffffffffff168273ffffffffffffffffffffffffffffffffffffffff1614612dec5780600860008473ffffffffffffffffffffffffffffffffffffffff1673ffffffffffffffffffffffffffffffffffffffff16815260200190815260200160002060007f314f33d36812fa77f857277e466e3b8ef8b3d560f8c84129b04c3be6509fd24e81526020019081526020016000206000828254612de4919061405e565b925050819055505b5b612df8838383612e7f565b505050565b600073ffffffffffffffffffffffffffffffffffffffff168273ffffffffffffffffffffffffffffffffffffffff1603612e6f5760006040517fec442f05000000000000000000000000000000000000000000000000000000008152600401612e669190613745565b60405180910390fd5b612e7b60008383612bad565b5050565b600073ffffffffffffffffffffffffffffffffffffffff168373ffffffffffffffffffffffffffffffffffffffff1603612ed1578060026000828254612ec5919061405e565b92505081905550612fa4565b60008060008573ffffffffffffffffffffffffffffffffffffffff1673ffffffffffffffffffffffffffffffffffffffff16815260200190815260200160002054905081811015612f5d578381836040517fe450d38c000000000000000000000000000000000000000000000000000000008152600401612f54939291906142d4565b60405180910390fd5b8181036000808673ffffffffffffffffffffffffffffffffffffffff1673ffffffffffffffffffffffffffffffffffffffff16815260200190815260200160002081905550505b600073ffffffffffffffffffffffffffffffffffffffff168273ffffffffffffffffffffffffffffffffffffffff1603612fed578060026000828254039250508190555061303a565b806000808473ffffffffffffffffffffffffffffffffffffffff1673ffffffffffffffffffffffffffffffffffffffff168152602001908152602001600020600082825401925050819055505b8173ffffffffffffffffffffffffffffffffffffffff168373ffffffffffffffffffffffffffffffffffffffff167fddf252ad1be2c89b69c2b068fc378daa952ba7f163c4a11628f55a4df523b3ef8360405161309791906133e5565b60405180910390a3505050565b5080546130b090613b08565b6000825580601f106130c257506130e1565b601f0160209004906000526020600020908101906130e091906130e4565b5b50565b5b808211156130fd5760008160009055506001016130e5565b5090565b600080fd5b600080fd5b6000819050919050565b61311e8161310b565b811461312957600080fd5b50565b60008135905061313b81613115565b92915050565b600080fd5b600080fd5b600080fd5b60008083601f84011261316657613165613141565b5b8235905067ffffffffffffffff81111561318357613182613146565b5b60208301915083600182028301111561319f5761319e61314b565b5b9250929050565b600080600080606085870312156131c0576131bf613101565b5b60006131ce8782880161312c565b945050602085013567ffffffffffffffff8111156131ef576131ee613106565b5b6131fb87828801613150565b9350935050604061320e8782880161312c565b91505092959194509250565b600081519050919050565b600082825260208201905092915050565b60005b83811015613254578082015181840152602081019050613239565b60008484015250505050565b6000601f19601f8301169050919050565b600061327c8261321a565b6132868185613225565b9350613296818560208601613236565b61329f81613260565b840191505092915050565b600060208201905081810360008301526132c48184613271565b905092915050565b600073ffffffffffffffffffffffffffffffffffffffff82169050919050565b60006132f7826132cc565b9050919050565b613307816132ec565b811461331257600080fd5b50565b600081359050613324816132fe565b92915050565b6000819050919050565b61333d8161332a565b811461334857600080fd5b50565b60008135905061335a81613334565b92915050565b6000806040838503121561337757613376613101565b5b600061338585828601613315565b92505060206133968582860161334b565b9150509250929050565b60008115159050919050565b6133b5816133a0565b82525050565b60006020820190506133d060008301846133ac565b92915050565b6133df8161332a565b82525050565b60006020820190506133fa60008301846133d6565b92915050565b60006020828403121561341657613415613101565b5b600061342484828501613315565b91505092915050565b60008083601f84011261344357613442613141565b5b8235905067ffffffffffffffff8111156134605761345f613146565b5b60208301915083600182028301111561347c5761347b61314b565b5b9250929050565b6000806000806060858703121561349d5761349c613101565b5b60006134ab87828801613315565b94505060206134bc8782880161334b565b935050604085013567ffffffffffffffff8111156134dd576134dc613106565b5b6134e98782880161342d565b925092505092959194509250565b60007fff0000000000000000000000000000000000000000000000000000000000000082169050919050565b61352c816134f7565b82525050565b61353b8161310b565b82525050565b60006060820190506135566000830186613523565b6135636020830185613532565b6135706040830184613532565b949350505050565b60008060006060848603121561359157613590613101565b5b600061359f86828701613315565b93505060206135b086828701613315565b92505060406135c18682870161334b565b9150509250925092565b600080604083850312156135e2576135e1613101565b5b60006135f08582860161312c565b925050602061360185828601613315565b9150509250929050565b600060ff82169050919050565b6136218161360b565b82525050565b600060208201905061363c6000830184613618565b92915050565b60006020828403121561365857613657613101565b5b60006136668482850161334b565b91505092915050565b60008060006060848603121561368857613687613101565b5b60006136968682870161312c565b93505060206136a78682870161312c565b92505060406136b88682870161334b565b9150509250925092565b600080600080606085870312156136dc576136db613101565b5b60006136ea8782880161312c565b94505060206136fb8782880161334b565b935050604085013567ffffffffffffffff81111561371c5761371b613106565b5b6137288782880161342d565b925092505092959194509250565b61373f816132ec565b82525050565b600060208201905061375a6000830184613736565b92915050565b60006020820190506137756000830184613532565b92915050565b600081519050919050565b600082825260208201905092915050565b6000819050602082019050919050565b6137b08161310b565b82525050565b60006137c283836137a7565b60208301905092915050565b6000602082019050919050565b60006137e68261377b565b6137f08185613786565b93506137fb83613797565b8060005b8381101561382c57815161381388826137b6565b975061381e836137ce565b9250506001810190506137ff565b5085935050505092915050565b6000602082019050818103600083015261385381846137db565b905092915050565b60006020828403121561387157613870613101565b5b600061387f8482850161312c565b91505092915050565b600060608201905081810360008301526138a28186613271565b90506138b16020830185613532565b6138be60408301846133d6565b949350505050565b600080604083850312156138dd576138dc613101565b5b60006138eb85828601613315565b92505060206138fc85828601613315565b9150509250929050565b60008060006040848603121561391f5761391e613101565b5b600061392d8682870161334b565b935050602084013567ffffffffffffffff81111561394e5761394d613106565b5b61395a8682870161342d565b92509250509250925092565b600080600080600080600060a0888a03121561398557613984613101565b5b60006139938a828b01613315565b97505060206139a48a828b01613315565b96505060406139b58a828b0161334b565b955050606088013567ffffffffffffffff8111156139d6576139d5613106565b5b6139e28a828b0161342d565b9450945050608088013567ffffffffffffffff811115613a0557613a04613106565b5b613a118a828b0161342d565b925092505092959891949750929550565b600080600080600060808688031215613a3e57613a3d613101565b5b6000613a4c8882890161312c565b9550506020613a5d88828901613315565b9450506040613a6e8882890161334b565b935050606086013567ffffffffffffffff811115613a8f57613a8e613106565b5b613a9b8882890161342d565b92509250509295509295909350565b7f4e487b7100000000000000000000000000000000000000000000000000000000600052604160045260246000fd5b7f4e487b7100000000000000000000000000000000000000000000000000000000600052602260045260246000fd5b60006002820490506001821680613b2057607f821691505b602082108103613b3357613b32613ad9565b5b50919050565b60008190508160005260206000209050919050565b60006020601f8301049050919050565b600082821b905092915050565b600060088302613b9b7fffffffffffffffffffffffffffffffffffffffffffffffffffffffffffffffff82613b5e565b613ba58683613b5e565b95508019841693508086168417925050509392505050565b6000819050919050565b6000613be2613bdd613bd88461332a565b613bbd565b61332a565b9050919050565b6000819050919050565b613bfc83613bc7565b613c10613c0882613be9565b848454613b6b565b825550505050565b600090565b613c25613c18565b613c30818484613bf3565b505050565b5b81811015613c5457613c49600082613c1d565b600181019050613c36565b5050565b601f821115613c9957613c6a81613b39565b613c7384613b4e565b81016020851015613c82578190505b613c96613c8e85613b4e565b830182613c35565b50505b505050565b600082821c905092915050565b6000613cbc60001984600802613c9e565b1980831691505092915050565b6000613cd58383613cab565b9150826002028217905092915050565b613cee8261321a565b67ffffffffffffffff811115613d0757613d06613aaa565b5b613d118254613b08565b613d1c828285613c58565b600060209050601f831160018114613d4f5760008415613d3d578287015190505b613d478582613cc9565b865550613daf565b601f198416613d5d86613b39565b60005b82811015613d8557848901518255600182019150602085019450602081019050613d60565b86831015613da25784890151613d9e601f891682613cab565b8355505b6001600288020188555050505b505050505050565b82818337600083830152505050565b6000613dd28385613225565b9350613ddf838584613db7565b613de883613260565b840190509392505050565b60006040820190508181036000830152613e0e818587613dc6565b9050613e1d6020830184613532565b949350505050565b7f53414c543a206e6f74206120636f6e74726f6c6c657200000000000000000000600082015250565b6000613e5b601683613225565b9150613e6682613e25565b602082019050919050565b60006020820190508181036000830152613e8a81613e4e565b9050919050565b7f53414c543a2073656e64657220697320626c6f636b6564000000000000000000600082015250565b6000613ec7601783613225565b9150613ed282613e91565b602082019050919050565b60006020820190508181036000830152613ef681613eba565b9050919050565b7f53414c543a20726563697069656e7420697320626c6f636b6564000000000000600082015250565b6000613f33601a83613225565b9150613f3e82613efd565b602082019050919050565b60006020820190508181036000830152613f6281613f26565b9050919050565b7f53414c543a20696e73756666696369656e7420706172746974696f6e2062616c60008201527f616e636500000000000000000000000000000000000000000000000000000000602082015250565b6000613fc5602483613225565b9150613fd082613f69565b604082019050919050565b60006020820190508181036000830152613ff481613fb8565b9050919050565b7f4e487b7100000000000000000000000000000000000000000000000000000000600052601160045260246000fd5b60006140358261332a565b91506140408361332a565b925082820390508181111561405857614057613ffb565b5b92915050565b60006140698261332a565b91506140748361332a565b925082820190508082111561408c5761408b613ffb565b5b92915050565b600082825260208201905092915050565b60006140af8385614092565b93506140bc838584613db7565b6140c583613260565b840190509392505050565b60006040820190506140e560008301866133d6565b81810360208301526140f88184866140a3565b9050949350505050565b7f53414c543a2069737375616e6365206973206c6f636b65640000000000000000600082015250565b6000614138601883613225565b915061414382614102565b602082019050919050565b600060208201905081810360008301526141678161412b565b9050919050565b7f53414c543a20646f63756d656e7420646f6573206e6f74206578697374000000600082015250565b60006141a4601d83613225565b91506141af8261416e565b602082019050919050565b600060208201905081810360008301526141d381614197565b9050919050565b7f4e487b7100000000000000000000000000000000000000000000000000000000600052603260045260246000fd5b7f4e487b7100000000000000000000000000000000000000000000000000000000600052603160045260246000fd5b600060408201905081810360008301526142528185613271565b90506142616020830184613532565b9392505050565b7f53414c543a20636f6e74726f6c6c6162696c697479207265766f6b6564000000600082015250565b600061429e601d83613225565b91506142a982614268565b602082019050919050565b600060208201905081810360008301526142cd81614291565b9050919050565b60006060820190506142e96000830186613736565b6142f660208301856133d6565b61430360408301846133d6565b949350505050565b600081519050919050565b60006143218261430b565b61432b8185614092565b935061433b818560208601613236565b61434481613260565b840191505092915050565b600060408201905061436460008301856133d6565b81810360208301526143768184614316565b90509392505050565b7f53414c543a20696e73756666696369656e7420756e6c6f636b65642062616c6160008201527f6e63650000000000000000000000000000000000000000000000000000000000602082015250565b60006143db602383613225565b91506143e68261437f565b604082019050919050565b6000602082019050818103600083015261440a816143ce565b905091905056fea26469706673582212201b13b1a154f7198d6a48763d7bfb77201e2a74d4e803fea8d887a6b349fcb3b364736f6c634300081c0033",
  "linkReferences": {},
  "deployedLinkReferences": {}
}